:020000040000fa
:10000000f0ff0320352100006f290000bf2f000002
:10001000e33100006b3300000b35000000000000ee
:10002000000000000000000000000000f1390000a6
:100030004f31000000000000512a0000713800001c
:10004000bb250000bb250000bb250000bb25000030
:10005000bb250000bb250000bb250000bb25000020
:10006000bb250000bb250000bb2500007539000042
:10007000bb250000bb250000bb250000bb25000000
:10008000bb250000bb250000bb250000bb250000f0
:10009000bb250000bb250000bb250000bb250000e0
:1000a000bb250000bb250000bb250000bb250000d0
:1000b000bb250000bb250000bb250000bb250000c0
:1000c000bb250000bb250000bb250000bb250000b0
:1000d000bb250000bb250000bb250000bb250000a0
:1000e000bb250000bb250000000000000000000050
:1000f00000000000bb250000bb250000bb25000060
:10010000bb250000bb250000bb250000bb2500006f
:10011000bb250000bb250000bb250000bb2500005f
:10012000bb250000bb250000bb250000bb2500004f
:10013000bb250000bb250000bb250000bb2500003f
:10014000bb250000bb250000bb250000bb2500002f
:10015000bb250000bb2500000000000000000000df
:10016000000000000000000000000000000000008f
:100170000000000000000000bb250000bb250000bf
:10018000bb250000bb250000bb250000bb250000ef
:1001900000000000bb250000bb250000bb250000bf
:1001a000bb250000bb250000bb250000bb250000cf
:1001b000bb250000bb250000bb250000bb250000bf
:1001c000bb250000bb250000bb250000bb250000af
:1001d000bb250000bb250000bb250000bb2500009f
:1001e000bb250000bb250000bb250000bb2500008f
:1001f000bb250000bb250000bb250000bb2500007f
:10020000bb2500000000000000000000bb2500002e
:10021000bb250000bb250000bb250000bb2500005e
:10022000bb250000bb250000bb250000bb2500004e
:10023000bb250000bb250000bb250000bb2500003e
:10024000bb250000bb250000bb250000bb2500002e
:10025000bb250000bb250000bb250000bb2500001e
:020000040000fa
:10026000f8b500bff8bc08bc9e467047913200004c
:10027000f8b500bff8bc08bc9e4670476d32000060
:020000040000fa
:080280003c0600000100000033
:020000040000fa
:1002880098c700201c00000000000000b4c7002030
:100298001c00000000000000d0c700201c00000067
:1002a8000000000014c800200c000000000000003e
:1002b80068c70020300000000000000014c60020bd
:1002c800a0000000000000001ca80020040000009e
:1002d8000000000060c900200400000001000000c8
:1002e800aaaaaaaa44b40020040000000000000042
:1002f8000000002000a000000000000030c800201e
:10030800040000000000000034c8002004000000c1
:100318000000000038c800200400000000000000b1
:100328003cc800200400000000000000b4c6002003
:10033800640000000000000040c800200400000025
:100348000000000044c80020040000000000000075
:1003580048c8002004000000000000004cc800202d
:10036800040000000000000050c800200400000045
:100378000000000054c80020040000000000000035
:10038800ecc70020140000000000000000c8002096
:10039800140000000000000058c8002004000000fd
:1003a800000000005cc800200400000000000000fd
:1003b80000a000201c0800000000000054b6002027
:1003c800f8010000000000004cb80020f80100000f
:1003d8000000000044ba0020f801000000000000fe
:1003e8003cbc0020f80100000000000020a800200c
:1003f8001c0800000000000034be0020f8010000c6
:10040800000000002cc00020f801000000000000df
:1004180024c20020f8010000000000001cc40020d5
:10042800f80100000000000020c8002008000000bb
:100438000000000070c8002001000000000000005b
:1004480060c80020040000000000000018c7002059
:10045800500000000000000074c800206c0000007c
:100468000100000080c800207cc8002080c800204f
:10047800000000002500000044b000200004000037
:100488000000000000000000000000000000000064
:100498000000000000000000000000000000000054
:1004a800a33e000000000000000000000000000063
:1004b80000000000d52b0000000000000000000034
:1004c8000000000000000000000000000000000024
:1004d8003cb00020080400000000000040c90020d3
:1004e80020000000010000000100000003000000df
:1004f80000000000000000000000000000000000f4
:100508000000000028c8002028c8002008000000bb
:100518000000000064c80020040000000000000083
:1005280068c80020040000000000000048b4002053
:100538000c02000000000000e0c80020600000007d
:10054800010000000100000003000000000000009e
:100558000000000000000000000000000000000093
:100568005d2e0000000000000000000000000000f8
:10057800973e0000a33a00000000000000000000c1
:100588000000000000000000000000000000000063
:100598000000000000000000000000000000000053
:1005a800000000006cc800200400000000000000eb
:1005b8000000000000000000444444444444444413
:020000040000fa
:1005c8002de9f04fadb00027dff8e4a2039106460d
:1005d8001546b8464ff0ff3903990b78002b00f009
:1005e800f9800cabcde907890a938023cdf82480e4
:1005f8000b9300240b5d0bb1252b26d134b1224679
:10060800304602f045ff039b23440393039b1a786b
:10061800252a40f0d78003f1010bcdf80cb00398e0
:1006280003782b2b1ad025d8202b1bd0232b1dd099
:100638002a2b27d002f0aefd0990039b1a78303a96
:10064800092a2ed801330393f7e70134d2e7079b31
:1006580043f00103013007930390e0e7079b43f061
:100668000403f7e7079b43f00803f3e7079b43f00e
:100678001003efe72d2bead0302bd9d1079b43f09d
:100688000203e7e72b681a1d1b682a600130002b5c
:100698000390099305da079a5b4282f001020792f8
:1006a8000993079bda0744bf23f002030793039bd0
:1006b8001a782e2a0dd1581ccdf8208003905a782c
:1006c8002a2a25d1023303932b681a1d1b682a6036
:1006d800089303a802f032ff039b0190187803f0f7
:1006e80099fb6928019979d032dc632800f0c6802b
:1006f80019dc252800f0d080612853d025238df8f7
:100708001030cdf80cb0cdf81c80cde90898c0e0c9
:1007180002f040fd0890039b1a78303a092ad8d88d
:1007280001330393f7e7642858d06728e6dc2a46a4
:1007380004a803f0f1f8002800f09c80039b5a1ce1
:1007480003921b7804aa07a9304603f04bf938e056
:10075800702873d015dc6e2800f087806f28cdd103
:100768002b46002204a801f0fdfa002800f0828040
:10077800039b04aa013307a93046039302f0baf891
:100788001fe075283ad0782848d07328b6d1802938
:1007980070d1039b2a6801330393131d2b601268e1
:1007a80000235be02a4604a803f0b6f8002861d0cd
:1007b800039b5a1c03921b7804aa07a9304603f02e
:1007c80011f904443c44a7426edd384b4f221a60ad
:1007d8004ff0ff3738462db0bde8f08f2b46012289
:1007e80004a801f0bffa002844d0039b04aa0133ef
:1007f80007a93046039301f0b3fbe2e72b4600223a
:1008080004a801f0affa002834d0039b04aa0133ee
:1008180007a93046039302f0a3fbd2e72b46002238
:1008280004a801f09ffa28b3039b5a1c03921b7873
:1008380004aa07a9304600f025fec2e72b4600228d
:10084800f02104a801f08efaa0b1039b01330393b1
:10085800dde90423134306d10023524607a9304695
:1008680002f026fbade77823e2e72b463a1904a805
:1008780001f061fe039b01330393a3e78029f9d1bb
:10088800039b013303932b681a1d1b682a608df89c
:100898001030012304aae1e78029ebd1039b8df8ee
:1008a800100001330393f4e7274695e668c8002053
:0408b800e63b00001b
:020000040000fa
:1008bc002de9f04f099f154604468e461e46002b27
:1008cc0040f0cc808a42b2fa82fc4cd9bcf1000fc9
:1008dc000bd0ccf1200801fa0cfe20fa08f802fa31
:1008ec000cf548ea0e0e00fa0cf44fea15491ffa03
:1008fc0085f8befbf9fa210c09fb1ae30afb08fb8d
:10090c0041ea03439b452ad9eb180af1ff3004d284
:10091c009b4502d9aaf102002b44a3eb0b03a4b212
:10092c00b3fbf9f209fb123302fb08f844ea034467
:10093c00a04516d92c1902f1ff3303d2a04501d9d9
:10094c00931e2c44a4eb080443ea004027b124fa7c
:10095c000cf400233c607b603146bde8f08f5046c0
:10096c00dbe71346eee702b9ffdebcf1000f2ed138
:10097c008b1a01264fea154eaab2b3fbfef8210cd6
:10098c000efb183308fb02f941ea0343994561d980
:10099c00eb1808f1ff3004d2994502d9a8f10200f6
:1009ac002b44a3eb0903a4b2b3fbfef10efb1133f2
:1009bc004a4344ea0344a2424ed92c1901f1ff33b5
:1009cc0003d2a24201d98b1e2c44a41abce7ccf151
:1009dc00200e02fa0cf521fa0ef901fa0cf320faaa
:1009ec000efe4eea03034fea154800fa0cf4b9fb6d
:1009fc00f8f11ffa85fe08fb1192180c01fb0ef69c
:100a0c0040ea0242964221d9aa1801f1ff3003d2e2
:100a1c00964201d9881e2a44921b9bb2b2fbf8f96c
:100a2c0008fb192209fb0efe43ea02439e450fd92f
:100a3c00eb1809f1ff3604d29e4502d9a9f1020642
:100a4c002b44a3eb0e0346ea004693e70846e3e784
:100a5c004e46f6e74046a4e70b46b6e78b4206d96e
:100a6c00002f7ed00026c7e90001304674e7b3faa8
:100a7c0083fcbcf1000f0fd18b4201d3824209d809
:100a8c00841a61eb030e0120002f6dd0c7e9004ed4
:100a9c00002661e76046f7e7ccf1200e03fa0cf371
:100aac0022fa0ef521fa0ef41d4301fa0cf320fa8a
:100abc000ef10b434fea154a00fa0cf6b4fbfaf9a7
:100acc001ffa85f80afb19401c0c09fb08f144ead3
:100adc000044a14202fa0cf23fd92c1909f1ff3063
:100aec0004d2a14202d9a9f102002c44641a9bb28f
:100afc00b4fbfaf90afb194409fb08f843ea044170
:100b0c0088452cd9691809f1ff3304d2884502d9dc
:100b1c00a9f10203294443ea0040a1eb0801a0fb20
:100b2c0002894945c2464c4602d306d1464504d2f9
:100b3c00b8eb020a69eb05040138afb1b6eb0a0356
:100b4c0061eb040606fa0efe23fa0cf34eea0303dd
:100b5c0026fa0cf6c7e900369ae74846c6e74b4634
:0c0b6c00d9e73e463846f7e63e46f5e67f
:020000040000fa
:100b78002de9f04f87b0039003a802f0b3fb0028db
:100b880003da002007b0bde8f08f039b1b095d1e48
:100b9800202d0fd9023b5e4ab3f5007f35bf02eb2b
:100ba800d30302ebd31313f8045c13f8045c34bfcb
:100bb800013511350123a5f12001c5f1200203fa01
:100bc80001f923fa02f203fa05f8d8f1000849ea14
:100bd800020969eb4909cde90089dff84081dff8ae
:100be80030914746d8e90023009902ea010a0199a1
:100bf80003ea010b5aea0b0342d1039b05a8103301
:100c0800059303f066f818b9424b0c221a60b9e74d
:100c1800d8f80852a84206d0059b103b059301233b
:100c280000f110058360059bea18012143f00103d8
:100c3800b5f1080442f8083c42f8041cc7f8082239
:100c480045f8043c9dd0204602f0aefd88b155f829
:100c5800083c55f8041c23f00103e31a5a6822f0f3
:100c680001020a445a6055f8041c21f0010162503f
:100c78001c462046039902f0dffd04f1080081e7d5
:100c88005446254bbaf1000f34d1cbf1000000eaed
:100c98000b00434309ebd36393f83c60203630469e
:100ca80002f01cff731c57f8334007ebc303083be3
:100cb8009c4297d0272e26dd0235ae4201dc3f2e1e
:100cc80021d16268039922f00102551a284602f0e0
:100cd8006dfc864217d1e068a6686318d8609e60ec
:100ce80083609868c36041f0010060505d60a55062
:100cf8006060bee7caf100002040434309ebd363bc
:100d080093f83c60cbe73146204602f0fdf8b0e7a7
:100d1800002e000068c8002029e66b0748b40020b0
:020000040000fa
:100d28002de9f04184b0044601914ff00008464691
:100d380045464f4f43e0013ba36323684bb123690a
:100d48005bb902f0e5ff4ff00108404604b0bde88a
:100d5800f08102f02bffa060f1e704f1100001f030
:100d68008ffd0028edd0424b4ff080521a60bff340
:100d78004f8fbff36f8fe4e702f0caff4ff0000810
:100d8800e3e702a802f060ff23e002f097fea06804
:100d980001f092f8804602f0bbff40e0204601f0e7
:100da8008bfb00f083fd09e0204601f085fb00f095
:100db8007dfd204602f06cff002844d1012602f098
:100dc8007dfea36b002bb6d1019b002bd4d0002e47
:100dd800d7d002f09dff02f0f5ff02f06ffe94f805
:100de80044305bb2b3f1ff3f08bf84f8445094f835
:100df80045305bb2b3f1ff3f08bf84f8455002f0bd
:100e080087ff01a902a801f03fff0028ccd12046a6
:100e180002f03eff0028c1d02368002bb5d001990d
:100e280004f1240002f0b4fe204601f045fb00f076
:100e38003dfd0028c2d14ff080533b60bff34f8f78
:100e4800bff36f8fbae7b8f1000f3ff47eaf02f03f
:100e580035fe616a19b1236b1968c1f10501a068f3
:100e680001f0aafa02f054ff4ff000086de700bf46
:040e780004ed00e0a5
:020000040000fa
:100e7c0030b583b000238df807304ff4002002f01a
:100e8c0086ff50b9012002f082ff88bb102002f0cf
:100e9c007eff002858d103b030bd4ff4002002f083
:100eac00ddff02f01ffc10f0070001d007281bd15a
:100ebc000df1070002f007fb0028e3d0384c482264
:100ecc000021204602f08cff21469df8070002f01d
:100edc0065fa28b148222146012001f001ffd1e733
:100eec00304802f055fdcde72e4802f051fdc9e720
:100efc00012002f0b3ff02f0f5fb10f0070001d067
:100f0c0007281dd1002002f006fe04460028bdd0a3
:100f1c0000ebc002244dd2000021284602f060fff5
:100f2c002a462146002000f031fd28b148222946ee
:100f3c00204601f0d5fea9e71a4802f029fda5e7e5
:100f4c00184802f025fda1e7102002f087ff02f0ff
:100f5c00c9fb10f0070001d007281dd1012002f0b9
:100f6c00dafd0446002896d000ebc0020f4dd200eb
:100f7c000021284602f034ff2a462146012000f0c9
:100f8c0005fd28b148222946204601f0a9fe82e73a
:100f9c00044802f0fdfc7ee7024802f0f9fc7ae717
:100fac0054b60020201100004cb8002044ba002098
:020000040000fa
:100fbc0030b583b000238df807304ff4002002f0d9
:100fcc0091fe50b9012002f08dfe88bb102002f07a
:100fdc0089fe002858d103b030bd4ff4002002f038
:100fec0025ff02f067fb10f0070001d007281bd18a
:100ffc000df1070002f0b4f90028e3d0384c482278
:10100c000021204602f0ecfe21469df8070002f07c
:10101c0047f928b148222146012001f08ffed1e783
:10102c00304802f0b5fccde72e4802f0b1fcc9e720
:10103c00012002f0fbfe02f03dfb10f0070001d096
:10104c0007281dd1002002f027fd04460028bdd042
:10105c0000ebc002244dd2000021284602f0c0fe55
:10106c002a462146002000f0fdfc28b148222946e2
:10107c00204601f063fea9e71a4802f089fca5e7b7
:10108c00184802f085fca1e7102002f0cffe02f018
:10109c0011fb10f0070001d007281dd1012002f030
:1010ac00fbfc0446002896d000ebc0020f4dd2008a
:1010bc000021284602f094fe2a462146012000f029
:1010cc00d1fc28b148222946204601f037fe82e7a0
:1010dc00044802f05dfc7ee7024802f059fc7ae716
:1010ec0034be0020201100002cc0002024c200209f
:020000040000fa
:1010fc002043616e305478204661696c6564200d24
:10110c00000000000001020304050607080c10147f
:10111c0018203040204572726f7220696e20726503
:10112c00636569766564206d6573736167650d0031
:10113c002043616e315478204661696c6564200de2
:10114c00000000004d656e75203a0d0a20202d2df3
:10115c002053656c656374207468652061637469e1
:10116c006f6e3a0d0a2020303a2053656e6420438e
:10117c00616e30204644207374616e646172642029
:10118c006d657373616765200d0a2020313a205319
:10119c00656e642043616e31204644207374616e29
:1011ac0064617264206d657373616765200d0a203c
:1011bc0020323a20546f67676c652043616e302093
:1011cc005458206d6f6465200d0a20206d3a204420
:1011dc006973706c6179206d656e75200d0a0d0058
:1011ec000d00000048656c6c6f0000004143543ae0
:1011fc0020256c752c204252503a20256c750a0023
:10120c00576f726c640000005458206d6f64652039
:10121c00746f67676c65640d0000000020496e7682
:10122c00616c696420496e707574200d000000bffc
:020000040000fa
:10123c002de9f047002001f0f7fc414800f036fda5
:10124c00404800f0d9fc404802f0a2fb3f4c404f14
:10125c00404da946404e06f1f00813e04a460821dd
:10126c004ff4807001f020fc2b686a68013342f166
:10127c0000022b606a60fff7fbfdfff799fe02f09e
:10128c0097fd88b94ff08443d3f8c430d4f8c42008
:10129c0003f03f03042beed902f03f02042aead9f3
:1012ac003b78002bdad1e6e702f0ccfd82464046d3
:1012bc0002f06efb5ffa8af032282fd014dc302853
:1012cc001bd0312814d106f5887206214ff400701a
:1012dc0001f01afc616cd4f8cc20c1f3c10106f109
:1012ec00fc0002f0b5fbcde74d2824d06d2822d0b0
:1012fc0006f5967002f04cfbc4e706f1f4020621e9
:10130c004ff4007001f0d0fb616cd4f8cc20c1f329
:10131c00c10106f1fc0002f09bfbb3e73b7883f0c4
:10132c0001033b7000220023c5e9002306f58c70f5
:10133c0002f02efba6e706f1540002f029fba1e710
:10134c0000a0002020a80020501100000004004242
:0c135c0070c8002020c80020fc10000019
:020000040000fa
:101368002de9f04784b00446884601921d464ff0a7
:1013780000094e46424f33e02a464146204601f0d6
:1013880009fa636a73b938b13d4b4ff080521a605d
:10139800bff34f8fbff36f8f02f0bafc012004b088
:1013a800bde8f08704f1240001f06afa0028f3d0c0
:1013b800334b4ff080521a60bff34f8fbff36f8fdc
:1013c800eae702f0a5fc0020e9e702a802f03cfced
:1013d80014e0204601f070f800f068fa4ff00109b7
:1013e80002f06cfba26be36b9a42c5d3022dc3d00b
:1013f800019b002be5d0b9f1000fe6d002f088fc84
:1014080002f0e0fc02f05afb94f844305bb2b3f10e
:10141800ff3f08bf84f8446094f845305bb2b3f1ed
:10142800ff3f08bf84f8456002f072fc01a902a8da
:1014380001f02afce8b902f041fbd4f838a0d4f84e
:101448003c9002f065fcca45c3d1019904f1100033
:1014580002f09efb204601f02ff800f027fa002842
:10146800bcd14ff080533b60bff34f8fbff36f8ffa
:10147800b4e7204601f020f800f018fa00208ee7c3
:0414880004ed00e08f
:020000040000fa
:10148c002de9f04fd1e901590e68d1f80c808bb0e1
:10149c00002da8bf26f002060393b8bf012516f055
:1014ac00100302900f460493d2e900ab37d05aeaee
:1014bc000b0334d0a9f102033c6916f0080104f1c6
:1014cc00ff3405914ff0000108f8041006f00201fa
:1014dc000691039918bf03f1ff335b1b4139012cb3
:1014ec001fdc049b002b4cd1059b1bb1013c202322
:1014fc0008f804303a690096013a4b46121b08eb87
:10150c000401029800f096ff029b5b68db0503d593
:10151c007b689842b8bf18460bb0bde8f08f4b46bd
:10152c00cae75aea0b0007d1002d05dc5819002830
:10153c00d7dd06980028d4d00af00f000928d4bfb4
:10154c0030305730192904f1ff340ed840f0200cfc
:10155c00acf1610cbcf1190f07d8cde90831079239
:10156c0002f05dfcdde90831079a08f804004fea47
:10157c001a1040ea0b704fea1b1c013d8246e346f1
:10158c00ade7d2e900231343aed008eb0403039a72
:0e159c0003f8012c023c302308f80430a4e7c9
:020000040000fa
:0215aa00704788
:020000040000fa
:1015ac002de9f047384b1b68002b67d1374b1f6870
:1015bc0001371f60bfb1364b1b68bb4220d90025d9
:1015cc00344b1b68db6a03eb83039b00324ad35812
:1015dc00022b28bf0125314b1b68002b18bf01259e
:1015ec002846bde8f0872e4a11682e4b186810600b
:1015fc0019602d4a13680133136002f049f9dae7d8
:10160c000025dff89c80dff8a890dff88ca021e0a3
:10161c001f4b4ff0ff321a60d2e71d4a1360cfe721
:10162c0004f1180002f002fae06ad9f80020012354
:10163c0083401343c9f8003000eb800031460aebbd
:10164c00800002f039fb134b1b68e26adb6a9a429a
:10165c0028bf0125d8f800301b68002bd8d0d8f84b
:10166c000030db68dc6863689f42d6d3261d3046a9
:10167c0002f0dcf9a36a002bd2d1d5e70b4a136830
:10168c00013313600025abe744c8002058c8002084
:10169c004cc8002034c80020b4c600205cc8002010
:1016ac0038c800203cc8002050c8002054c8002076
:0416bc0048c80020fa
:020000040000fa
:1016c000374b00221a7403f50063364a9a621a46b1
:1016d000536813f0100ffbd1334b4222c3f8842020
:1016e0001a46d2f8843013f0400ffad02f4b002264
:1016f0009a6377225a631a46d36b13f0040ffbd117
:101700002a4b022283f830201a46d36b13f0020fc3
:10171000fbd1264a136c03f00303032bfad1244bad
:1017200001225a711a46d37813f0010ffbd01e4bd9
:10173000204a1a621a46536813f0040ffbd11a4b61
:101740001d4a5a621a46536813f0080ffbd1164b14
:101750004122c3f8ec201a46d2f8ec3013f0400fc7
:10176000fad0114b4122c3f8f0201a46d2f8f030db
:1017700013f0400ffad00c4b4122c3f80c211a464b
:10178000d2f80c3113f0400ffad0094b6ff07f42c2
:101790001a6140f2ff725a6102221a62704700bf5a
:1017a0000014004006013000001c00400010004002
:0c17b000000800400701010007010200d2
:020000040000fa
:1017bc002de9f84300286ad050f8043ca0f1080445
:1017cc0023f00106a719a259934200d0ffde7a68d4
:1017dc0023681340da070fd4204601f0e3ff0028fa
:1017ec0057d1384602f06af80028f0d07b6823f015
:1017fc0001031e441f44eae746f0010363603046d0
:10180c003b6001f0d1fe054602f066f923687a6868
:10181c001340db07e0d5dff88ce0dee90089c5f189
:10182c00200ca5f1200228fa05f009fa0cfc29fa83
:10183c0002f240ea0c001043012100ea01020023ed
:10184c001343c5f120007346a5f1200212d121faf1
:10185c0000f001fa02f2a94042ea00021ebfdef8d3
:10186c0000000143cef8001022b1def804100a4348
:10187c00cef80420681c03ebc003a3f108026660d9
:10188c003e60a2605a68e2605c60e3689c60bde800
:10189c00f883236823f00103e41a636823f001033f
:0818ac001e449ee748b4002031
:020000040000fa
:1018b4002de9f04102f004f92d4b1a68013a1a603f
:1018c4001b68002b4dd12b4b1b680bb9002449e03e
:1018d4000024294e294fdff8b880336803b3f36836
:1018e400dc6804f1180002f0a5f8251d284602f072
:1018f400a1f8e06a3a680123834013433b6000eb9c
:101904008000294608eb800002f0daf91c4b1b68c2
:10191400e26adb6a9a42e0d31a4b01221a60dce7de
:101924000cb101f0b9ff184b1c686cb1154e0125c0
:1019340001e0013c05d0fff737fe0028f9d03560ff
:10194400f7e7114b00221a600e4b1c6854b10f4b81
:101954004ff080521a60bff34f8fbff36f8f012493
:1019640000e0002402f0d6f92046bde8f08100bf73
:1019740044c8002040c80020ecc7002048c800200c
:1019840034c800205cc8002054c8002004ed00e0e6
:04199400b4c60020b5
:020000040000fa
:10199800002a65d02de9f84f8046154620b1012868
:1019a80030d00020bde8f88f4ff08443d3f8a4402e
:1019b800c4f30524f1b14f1e5ffa87fb0026dff858
:1019c800a4a04ff0480900e01e4604ebc401daf871
:1019d80000304a4603ebc101284602f0d1f9b7426c
:1019e80008d048350134e4b2072c08bf4446731cbc
:1019f800b345e9d104f03f044ff08443c3f8a8404d
:101a08000120cfe74ff08443d3f8b440c4f3052452
:101a1800f1b14f1e5ffa87fa0026dff848904ff0c1
:101a2800480800e01e4604ebc401d9f804304246d9
:101a380003ebc101284602f0a3f9be4208d048359d
:101a48000134e4b2072c08bf0024731c5645e9d1c1
:101a580004f03f044ff08443c3f8b8400120a1e7e5
:081a680000207047d0c70020e8
:020000040000fa
:101a7000002a61d02de9f84f8046154620b1012893
:101a80002ed00020bde8f88f2c4bd3f8a440c4f32f
:101a90000524f1b14f1e5ffa87fb0026dff8a0a0f6
:101aa0004ff0480900e01e4604ebc401daf80030ac
:101ab0004a4603ebc101284602f066f9b74208d056
:101ac00048350134e4b2072c08bf4446731cb345c3
:101ad000e9d104f03f04194bc3f8a8400120d1e735
:101ae000164bd3f8b440c4f30524f1b14f1e5ffa8e
:101af00087fa0026dff848904ff0480800e01e46bd
:101b000004ebc401d9f80430424603ebc101284676
:101b100002f03af9be4208d048350134e4b2072c4d
:101b200008bf0024731c5645e9d104f03f04034b61
:101b3000c3f8b8400120a5e7002070470004004228
:041b4000b4c7002006
:020000040000fa
:101b4400f8b52d494c6ad1e90623561c43f1000728
:101b5400c1e90667002c4dd091f82030013381f89b
:101b64002030a36823b1a368013ba3604c6afcb195
:101b7400a368ebb9012500271f4e0ae0e06901f0d4
:101b84006bfce3680bb120699847746a84b1a3685d
:101b940073b925756575a37813b9e368002bedd186
:101ba400204601f083faa378002bead16770e8e7b6
:101bb400124d00242e46274603e001342035052c1f
:101bc40012d006eb44135b7d002bf6d006eb4413d6
:101bd4005f75ab78012bf0d16b6806eb4412936010
:101be400284600f0e9fae8e7034a92f82030013b7e
:101bf40082f82030f8bd00bf68c7002014c600205a
:020000040000fa
:101c040010b5044640f61c02002102f0edf8264a05
:101c1400936943f001039361936913f0010ffbd0bf
:101c2400214b9a6942f002029a6120490c60a2b2e7
:101c340042f0004242f4e022c3f8a02004f5fc7212
:101c44004a6092b242f0004242f4e022c3f8b0206b
:101c540004f57c728a6092b2c3f8ac2004f5bd62cc
:101c6400ca6092b242f0e062c3f8c02004f5fc629c
:101c74000a6192b242f4e022c3f8f02004f618029a
:101c84004a610b4ac4f818288a8a42f48032c3f89d
:101c940084209a6922f001029a611a46936913f02a
:101ca400010ffbd110bd00bf00040042b4c70020e7
:041cb400ff01000923
:020000040000fa
:101cb80010b5044640f61c02002102f093f84ff0dc
:101cc8008442936943f001039361936913f0010f10
:101cd800fbd04ff084439a6942f002029a611f498f
:101ce8000c60a2b242f0004242f4e022c3f8a02005
:101cf80004f5fc724a6092b242f0004242f4e022db
:101d0800c3f8b02004f57c728a6092b2c3f8ac20a4
:101d180004f5bd62ca6092b242f0e062c3f8c02026
:101d280004f5fc620a6192b242f4e022c3f8f020a2
:101d380004f618024a610a4ac4f818288a8a42f442
:101d48008032c3f884209a6922f001029a611a4607
:101d5800936913f0010ffbd110bd00bfd0c700205d
:041d6800ff00000870
:020000040000fa
:101d6c00882910b536d012dc812943d003dc8029b8
:101d7c0040d0002010bd82290ed08429f9d11968d9
:101d8c0002b30a1d1a60b1f90020d3171ee0a02976
:101d9c002bd00bdc9029ecd11968073121f007010d
:101dac0001f108021a60d1e900230fe0c02901d02b
:101dbc00f029ded11a68111d196013680360002325
:101dcc00436005e00a1d1a600a880023c0e900235d
:101ddc000120cfe7196822b10a1d1a6091f9002081
:101dec00d3e70a1d1a600a78efe71a68111d19600b
:101dfc001268cae719681ab10a1d1a600a68c4e7a2
:0c1e0c000c1d1c600b68c0e90032e1e70f
:020000040000fa
:101e1800244b1b681bb1244b01221a60704710b574
:101e2800214b00221a60214b1b681b6b1a68b2f108
:101e3800a53f03d15a68b2f1a53f23d01b4b1868c0
:101e48001968343101f08aff194b1b68b3fa83f320
:101e5800dbb2c3f11f03174a9900c81802eb8000d0
:101e6800446864684460194402460832944212d0b7
:101e780003eb83030f4a02eb83035b68da680b4bbf
:101e88001a6010bd9a68b2f1a53fd7d1db68b3f1eb
:101e9800a53fd3d1d8e760680a46064901eb82021c
:101ea8005060e5e744c800205cc8002034c8002022
:081eb80048c80020b4c6002058
:020000040000fa
:101ec000002849d038b50446c26a24490968c96a5d
:101ed0008a4238d28169002905db20490968c96a2c
:101ee000c1f10501816102eb82021d4901eb820211
:101ef0006169914205d0194a1268d26ae2620120f2
:101f000029e0251d284601f097fd38b915490b68d1
:101f1000e06a0122824023ea02030b600f4b1b6838
:101f2000d86ae0620f4a1168012404fa00f30b43f7
:101f3000136000eb80002946094b03eb800001f0a1
:101f4000c1fe204607e0054a1268406cd36a9842f9
:101f50002cbf0020012038bd0020704734c800206d
:081f6000b4c6002048c80020af
:020000040000fa
:101f68002de9f041d2e900230c4686b007465fea26
:101f7800d37820684968a5680590e66841d0524240
:101f880063eb4303002908db20f002000590b8f159
:101f9800000f02d1059948072ad5691e05a80290a5
:101fa8000a20cde90010204600f0b8fbb8f1000f78
:101fb80002d1059b59071fd5b8f1000f00f1ff307a
:101fc80014bf2d232b2333542269059b0093013a18
:101fd8002b46121a3118384600f02efa7b68db05ba
:101fe80003d563689842b8bf184606b0bde8f081cb
:101ff8000807d2d42946d1e71a07e5d501382023a6
:08200800e1e70029c0dac5e799
:020000040000fa
:1020100070b504460e461d4b1d681d4b18680430f4
:1020200001f00afd48b91a4b1a681a490b68d06ac0
:102030000122824023ea02030b60b4f1ff3f0dd07e
:102040002c44134b1b685c60a54210d9124b1868d6
:102050000f4b1968043101f019fb70bd002eefd051
:102060000b4b196804310d4801f02cfef5e70c4bc1
:102070001868074b1968043101f008fb094b1b680d
:10208000a34284bf074b1c60e7e700bf58c800208d
:1020900034c8002048c800203cc8002000c80020e8
:0820a00038c800204cc80020e4
:020000040000fa
:1020a8002de9ff41836946690093f61acde901617c
:1020b80004461746039216444ff002086d464246fe
:1020c8002946206801f088fbb04209d1d4e90232e0
:1020d800c4e905331a44a262384604b0bde8f08169
:1020e80000280dda6268002342f01002b8f1020fee
:1020f800a362c4e90533626015d06b68ff1aebe789
:102108006b68984288bf0835a6eb000688bfc01ade
:102118002b6803442b606b68a3eb000088bf08f1b1
:0a212800ff386860cbe71f46d6e7da
:020000040000fa
:022132007047f4
:020000040000fa
:1021340008b5194b9847194b9847eff3108172b6bd
:10214400174ad2f8883043f47003c2f88830bff3da
:102154004f8fbff36f8f01b962b6124a936823f0b1
:10216400010393601346da6812f0010ffbd10d4ba3
:1021740024225a6001229a6000f066fc0a4b23f084
:102184007f03074a9360094b9847094b9847094bcb
:102194009847fff751f8fee7332100003321000090
:1021a40000ed00e00060004100000000a52d0000eb
:0821b40033210000332100007b
:020000040000fa
:1021bc0000283cd02de9f04186461d4b5a6ad0f8d8
:1021cc000880c2b1936844460025984518d3002076
:1021dc0000219368c01841f100019369abb1d3f8a9
:1021ec0008c010eb0c0641f10007bd4208bfb44219
:1021fc000bd31a46ede7c0f808800d4b586214e07b
:10220c000b4b58628261002003e0cef81830c2f804
:10221c0018e0a8eb0000cef80800def8183023b167
:10222c00def808109a68521a9a60bde8f08170477f
:04223c0068c700204f
:020000040000fa
:102240001c4b01229a611a46936913f0010ffbd0cf
:10225000184b9a6942f002029a6140f62122da6034
:10226000154ada6140f27772c3f8bc204ff0ff32b2
:10227000c3f89820c3f89c200722c3f8c82028225e
:10228000c3f880209a6942f440729a619a6922f0f8
:1022900001029a611a46936913f0010ffbd1074bb3
:1022a00000221a605a609a60da601a615a619a6173
:1022b000704700bf00040042175e0006b4c700204c
:020000040000fa
:1022c0004ff0844301229a611a46936913f0010f7b
:1022d000fbd04ff084439a6942f002029a6140f6c3
:1022e0002122da60144ada6140f27772c3f8bc2026
:1022f0004ff0ff32c3f89820c3f89c200722c3f8a0
:10230000c8202822c3f880209a6942f440729a615a
:102310009a6922f001029a611a46936913f0010f3b
:10232000fbd1064b00221a605a609a60da601a618b
:102330005a619a61704700bf175e0006d0c700203f
:020000040000fa
:10234000002835d038b50446826c013a8264c06af0
:10235000616c88422ed00ab1002038bd251d284668
:1023600001f06afb70b9e26a02eb82039b0012493a
:10237000cb583bb911480368012101fa02f223ea64
:1023800002020260606ce062c0f10503a3610b4ac7
:102390001168012404fa00f30b43136000eb800082
:1023a0002946054b03eb800001f08cfc2046d4e766
:1023b000002070470020d0e7b4c6002048c80020a5
:020000040000fa
:1023c000002838d038b50446426c914238bf1146d7
:1023d000c26a8a4202d0806c012800d038bde16216
:1023e000a0690028a4bfc1f10501a16102eb82022e
:1023f000114901eb820261699142efd1251d284606
:1024000001f01afb38b90d490b68e06a01228240dd
:1024100023ea02030b60e06a084a11680123834043
:102420000b43136000eb80002946034b03eb800055
:1024300001f048fcd2e77047b4c6002048c800202d
:020000040000fa
:102440002de9ff471d460c9b13f0010906468a46fd
:10245000144601d195420bd822465146304601f030
:102460001bf8a54204d82546284604b0bde8f087ed
:102470002f1b102f3a464ff0200128bf102268462c
:10248000b84601f0b3fcb8f10f0f11d83b096ff05b
:102490000f0202fb03726946304600f0fdffb9f1fe
:1024a000000fe1d122465146304600f0f5ffdbe750
:1024b00010226946304600f0efffa8f11008e2e76d
:020000040000fa
:1024c00070b5054601f0fefa95f8454064b2002c5f
:1024d00011dd6b6a7bb105f1240606e001f0befc5c
:1024e000013c64b23cb16b6a2bb1304600f0ccf9d0
:1024f0000028f5d0f2e7ff2385f8453001f00cfc09
:1025000001f0e0fa95f8444064b2002c11dd2b692b
:102510007bb105f1100606e001f0a0fc013c64b2bd
:102520003cb12b692bb1304600f0aef90028f5d054
:0e253000f2e7ff2385f8443001f0eefb70bdaa
:020000040000fa
:10253e00842910b523d00cdc812903d0822913d035
:10254e0080290bd119680c1d1c600b6803601a6082
:10255e0013e0902921d003dc882917d0002010bd6c
:10256e00a029efd0c029ece719680c1d1c600b6880
:10257e000360d1171046c3e900010120efe7196887
:10258e000c1d1c600b6803601a80f6e719680c1da1
:10259e001c600b6803601a70efe719680c1d1c6055
:0c25ae0009680160d317c1e90023e6e7cb
:020000040000fa
:0225ba00fee73a
:020000040000fa
:1025bc000138c0b206282fd82de9f0470d4669b373
:1025cc00174bd3f8c440c4f30444013000ebc000f3
:1025dc0001ebc0060027dff84ca04ff048094ff084
:1025ec00010804ebc400daf80c304a46294603eb28
:1025fc00c00001f0c3fb483508fa04f31f43013453
:10260c00e4b2072c08bf0024ae42ead1044bc3f855
:10261c00d0700120bde8f087002070470020f9e75a
:08262c0000040042b4c70020c5
:020000040000fa
:102634000138c0b2062831d82de9f0470d4679b3e8
:102644004ff08443d3f8c440c4f30444013000eb96
:10265400c00001ebc0060027dff848a04ff048098e
:102664004ff0010804ebc400daf80c304a4629465e
:1026740003ebc00001f086fb483508fa04f31f435e
:102684000134e4b2072c08bf0024ae42ead14ff073
:102694008443c3f8d0700120bde8f0870020704760
:0826a4000020f9e7d0c7002077
:020000040000fa
:1026ac0059b338b50d4658bb174801f0a7fa0128a5
:1026bc0002d04ff0ff3025e02b68144c63604ff4d0
:1026cc000072e260b5f90420228100200021c4e9e7
:1026dc0006010025656284f820501b6829460c48c9
:1026ec00984763685b689847a0222946094801f01f
:1026fc0077fb02232370204604e04ff0ff30704735
:10270c004ff0ff3038bd00bf90c7002068c70020d5
:08271c00451b000014c600205b
:020000040000fa
:102724002de9f84f04460c9f6668d4f80cb0246970
:1027340010463a68013c002502f0020a0b9a0bf895
:102744000450002e1946b8bf0126012390464fead3
:10275400e279002c03dcd3b12046bde8f88f50eabf
:10276400010209d1721b002a06dc0a9a521b002ab4
:10277400f1ddbaf1000feed042464b4601f046f8c7
:10278400013c134630320bf804200135e1e73b6885
:0827940023f010033b60dfe7b6
:020000040000fa
:10279c0070b504461646856b026c5ab903681bb1ba
:1027ac0000200135a56370bd8068fff7c3fd0023d1
:1027bc00a360f6e76eb9406801f0e0fa6368226c3a
:1027cc0013446360a268934219d323686360304654
:1027dc00e7e7c06801f0d2fa226c5242e368134476
:1027ec00e36021688b4202d2a3681a44e260022e95
:1027fc0001d00020d5e725b1013d0020d1e73046be
:06280c00cfe70020cde73c
:020000040000fa
:10281200f8b5846a05460f46164654b1ab6a6a6932
:102822009b1ab3420bd2324639462846fff73bfc8d
:10283200f8bd01f018fa0028f0d02046f8e7002e83
:10284200f1d095f93430002b1bdbdbb23446621e2b
:10285200b95c994212d1224639462846fff723fc39
:10286200a042e5d32744341b22463946686901f069
:102872008afa6b691c446c613046d9e71446002a17
:06288200e5d13446f0e749
:020000040000fa
:1028880038b5c368dc6804f11805284601f0d0f8ab
:10289800124b1b68ebb9251d284601f0c9f8e06a00
:1028a8000f4a1168012383400b43136000eb80003b
:1028b80029460c4b03eb800001f000fa0a4b1b6819
:1028c800e26adb6a9a4283bf0120084b1860002045
:1028d80038bd2946064801f0f1f9efe744c8002061
:1028e80048c80020b4c6002034c800205cc80020b6
:0428f800ecc7002009
:020000040000fa
:1028fc00f0b50c4649682368a768e56887b00029dd
:10290c000593a4bf23f00203059305ab02930823a0
:10291c00cde900730646d2e900232046fff7fcfe02
:10292c00059bd90642bf00f1ff3030232b54059b89
:10293c001a0742bf00f1ff3020232b542269059b5c
:10294c000093013a3b46121a29183046fff772fde4
:10295c007368db0503d563689842b8bf184607b0a7
:02296c00f0bdbc
:020000040000fa
:02296e00fee782
:020000040000fa
:1029700038b504460d4601f0a5f82268216ce36bda
:1029800003fb01f3d018a0600020a06362605b1a13
:102990001344e360ff2384f8443084f84530a5b93c
:1029a00023691bb901f0b8f9012038bd04f110000a
:1029b000fff76aff0028f5d0084b4ff080521a60ed
:1029c000bff34f8fbff36f8fece704f1100001f0fe
:1029d0006ef904f1240001f06af9e3e704ed00e088
:020000040000fa
:1029e00038b5044610f0070f1cbf20f00704083468
:1029f00001f0ecf9124b1b687bb1124b1b681c44b5
:102a000049f6f77294420ed8a3420fd3fef752ff55
:102a100001f0b1f90025284638bd094a0a4b23f0d8
:102a200007031360e9e7fef745fff1e7044a15687d
:102a30001d44044b1c60fef73dff002debd1e7e782
:0c2a400044b4002030c800200800002032
:020000040000fa
:042a4c0000f092b84c
:020000040000fa
:102a5000eff30980bff36f8f154b1a681ef0100f4c
:102a600008bf20ed108a20e9f04f10602de9090021
:102a70004ff0200080f31188bff34f8fbff36f8fab
:102a8000fff7caf94ff0000080f3118809bc1968fc
:102a90000868b0e8f04f1ef0100f08bfb0ec108ac5
:102aa00080f30988bff36f8f704700bfaff30080da
:042ab00034c8002006
:020000040000fa
:102ab400f8b506460f461546134c48220021204619
:102ac40001f092f9b604002366f31c032360384630
:102ad40000f08afd00f00f0040f03000a07147b113
:102ae4002b460734ea1913f8015b04f8015f93429b
:102af400f9d105490120fff79bfd00b1f8bd03485a
:102b040000f04afffae700bf3cbc0020fc100000c4
:020000040000fa
:102b1400f8b506460f461546134c482200212046b8
:102b240001f062f9b604002366f31c0323603846ff
:102b340000f05afd00f00f0040f03000a07147b1e2
:102b44002b460734ea1913f8015b04f8015f93423a
:102b5400f9d105490120fff72ffd00b1f8bd034865
:102b640000f01afffae700bf1cc400203c1100006b
:020000040000fa
:102b740070b5144b144a0021934206d3134a00251e
:102b8400d2e9003123b919b970bd03f8011bf3e789
:102b9400946858180c3294b11446834208d111f049
:102ba400030318bf012303eb910102eb8102e7e762
:102bb40014f8016b03f8016befe703f8015b834240
:102bc400fbd1dde7000000200000002088020000a7
:020000040000fa
:102bd4007fb5c36800911546002b18bf013a0192d6
:102be40082680446cde902230e4602226946006843
:102bf40000f0c4fd002808dc00f0180383f008028c
:102c040063681343636005460fe0019a8242fad277
:102c1400a368e363801ae268184420642ab15a1c4a
:102c2400e2632e441b7806f8013c284604b070bdcc
:020000040000fa
:102c340008b501f0b9f8114b1b680021186801f0c0
:102c4400cbf80f4b1b680021186801f0c5f800f0a1
:102c5400e7fcfef733fdfef7a6fcfff72ffbfff7bb
:102c6400edfa00f0f7fc00f0d1f906490020fff777
:102c74001bfd054b186000f0a1f908bd78c80020c1
:0c2c84005cc90020703e00001ca800206d
:020000040000fa
:102c900070b504460d4600f015ff124b1a682b68fc
:102ca000b3f1ff3f16d061680f480068266886427e
:102cb00001d0914213d9501a834203d800232b60cc
:102cc000012408e09b1a0b442b60204600f0c0ff53
:102cd000002400e0002401f01ff8204670bd01240c
:0c2ce000f9e700bf58c8002050c80020d1
:020000040000fa
:102cec0040b32de9f04f85b00d4682464fea0219ec
:102cfc000026e846104f4ff4807bac7904f00f04ab
:102d0c0097e80f0088e80f0004ab1c4414f8101c63
:102d1c004b1e2b441a7a01321a7205f108025846de
:102d2c00fff7c2fe4d440136f6b2b245e5d105b00f
:0c2d3c00bde8f08f704700bf10110000d0
:020000040000fa
:102d480040b32de9f04f85b00d4682464fea02198f
:102d58000026e846104f4ff4007bac7904f00f04ce
:102d680097e80f0088e80f0004ab1c4414f8101c07
:102d78004b1e2b441a7a01321a7205f10802584682
:102d8800fff7c4fe4d440136f6b2b245e5d105b0b1
:0c2d9800bde8f08f704700bf1011000074
:020000040000fa
:102da4000e4a38b5002313600d4a0e4c13600e4ac8
:102db4000e4d13600e4a13600e4a13600e4a53629e
:102dc40013610123936001f01ff800f028fcac426a
:102dd40000d338bd54f8043b9847f8e764c8002092
:102de40024c700206c02000020c7002070020000ed
:0c2df40018c700201cc7002028c70020c2
:020000040000fa
:102e00002021222324242525262627272828282870
:102e1000292929292a2a2a2a2b2b2b2b2c2c2c2c0a
:102e20002c2c2c2c2d2d2d2d2d2d2d2d2e2e2e2ed2
:102e30002e2e2e2e2f2f2f2f2f2f2f2f0001170248
:102e40001d1813031e1b190b1408040d1f161c124a
:0c2e50001a0a070c1511090610050f0ed8
:020000040000fa
:102e5c0038b50d46044608b9002038bd43689b06ba
:102e6c0007d5d0e905239a4216d80023c4e90533c7
:102e7c00a362d4e90f13994204d20122c91a206823
:102e8c0001f00ef80023c4e90f33002de4d02068c4
:102e9c00bde8384000f0fcbf0022c36a11469847d9
:0c2eac006369002be1d14ff0ff30d6e746
:020000040000fa
:102eb8002de9ff41134dd1f80080af88adf80c70b3
:102ec80006462868029002aca8798df80e00002a00
:102ed80018bf1446d1e901571a461bb9204600f01d
:102ee80089ff0246002d02dbaa4228bf2a46cdf8f8
:102ef80000803b4621463046fff79efa04b0bde805
:082f0800f08100bf883e0000cb
:020000040000fa
:102f100070b5d0e90245a54217d10122a1f12003e5
:102f2000c1f1200622fa06f602fa03f333438a407f
:102f3000db43d6431ab10b490a6832400a605a1c77
:102f40001fbf084a51680b4053604368ac6043f0b0
:102f5000010223f00103e5604260c25842f0010221
:082f6000c25070bd48b400200e
:020000040000fa
:102f6800f0b50c4649682368a668e76887b0002969
:102f78000593a4bf23f00203059305ab02930a232c
:102f8800cde900630546d2e900232046fff7c6fbda
:102f98002269059b0093013a3346121a39182846cc
:102fa800fff74afa6b68db0503d563689842b8bf38
:062fb800184607b0f0bd51
:020000040000fa
:022fbe00fee72c
:020000040000fa
:102fc000114bda6822f4e0621204120c42f0bf6284
:102fd00042f40032da60bff35f8f62b6e02183f81b
:102fe00023100a4a82f80b134ff4006111605a6ae9
:102ff00042f480225a625a6942f010025a615a6ab7
:1030000042f400325a62704700ed00e000e100e057
:020000040000fa
:10301000124b01221a801a46136913f0010ffbd1db
:103020000e4b48f280121a801a46136913f4004faf
:10303000fbd10a4b01221a621a46136913f0200fc2
:10304000fbd1064b00225a621a46136913f0400f57
:10305000fbd1024b4ff480725a817047002400402c
:020000040000fa
:1030600010b370b506460d4600f05afbd5b10024ea
:103070000e4a137e13f0040ffbd0538b13f0070f8f
:103080000bd1536803f00703012b936a14bf335528
:1030900026f814300134a542ebd1a54214bf00201c
:1030a000012070bd2c46f8e7002070470004004363
:020000040000fa
:1030b000124b5a6a02b310b4824204d18369a3b19d
:1030c000002206e01a46936963b19842fad18369f7
:1030d00023b1846899682144996042b183699361fe
:1030e000002383615df8044b70471a46f5e7034bf4
:1030f0005a6a92695a62f3e7704700bf68c70020b6
:020000040000fa
:1031000013b5836a8df80710044673b16369a26a28
:10311000934212d3e36a01220df10701204698473a
:10312000012806d19df8070005e000f09dfd00286c
:10313000ecd04ff0ff3002b010bd9df8070094f9bd
:0e31400034209042e6d05a1c62611870f3e70a
:020000040000fa
:02314e00fee79a
:020000040000fa
:10315000022a70b5044616461d461ad043689b06df
:1031600017d441b9002d08bf4ff4806505f1080060
:10317000fdf702fd01466368012e43f02003636002
:10318000c4e9021514bfff230a2384f83430024b2c
:0c319000e362002070bd00bf13280000a7
:020000040000fa
:10319c0010b50278202a034600f10100f9d0a2f103
:1031ac0009010429f5d92b2a07d02d2a11d1012187
:1031bc000133013b00200a2403e00021f8e76043bf
:1031cc00801a13f8012f303a092af8d901b9404274
:0631dc0010bd0021ede72b
:020000040000fa
:0231e200fee706
:020000040000fa
:1031e400d0b110b40446c9b1084421460c4a644223
:1031f400137e13f0010ffbd0536803f00703012b78
:1032040014bf0b7834f81130936201318142efd14d
:1032140001205df8044b7047002070470120f8e757
:04322400000400435f
:020000040000fa
:1032280038b5044600f088fd002c16db63090c490c
:1032380051f8235004f01f04e54005f00105012270
:1032480002fa04f4203341f82340bff34f8fbff351
:103258006f8f00f07afd284638bd0025f9e700bfda
:0432680000e100e0a1
:020000040000fa
:10326c0010b5054c227832b9044b13b10448aff3b6
:10327c0000800123237010bd98c7002000000000bf
:10328c000000000008b5034b1bb103490348aff322
:10329c00008008bd000000009cc70020000000005a
:020000040000fa
:1032ac00062814d8a9b110b50b46044600ebc00093
:1032bc00094a9168482201ebc001184600f05efdf6
:1032cc00012000fa04f4054bc3f8984010bd00200f
:1032dc0070470020704700bfb4c7002000040042b4
:020000040000fa
:1032ec000c4a036810b5546a0b4a591e121b8a42c9
:1032fc000ad22bb1094b0c221a604ff0ff3010bdd3
:10330c00102202600020fae7173323f00f0303604a
:10331c00f8e700bf28c70020efffff7f68c8002038
:020000040000fa
:10332c0010b44c68a40602460b4603d45df8044b5b
:10333c0000f01eb991f93410c0b2814203d0596922
:10334c009c6aa14205d3114618465df8044bfff761
:0e335c00d1be4c1c5c610a705df8044b7047da
:020000040000fa
:02336a00fee77c
:020000040000fa
:10336c000d4bd3f89820a2b130b412f0010f0cd150
:10337c0001231c46ddb204fa03f1914306d001335c
:10338c00072bf7d1002030bc7047002505700120b9
:0c339c00f9e70020704700bf0004004269
:020000040000fa
:1033a800062815d8b1b110b50b46044600ebc0008d
:1033b800094a9168482201ebc001184600f0e0fc78
:1033c800012000fa04f44ff08443c3f8984010bd7c
:0c33d8000020704700207047d0c7002084
:020000040000fa
:1033e400431e13f1030f0fd883b2042b0ed80a4add
:1033f40002eb4312d26982420ad15a0106498a5c1d
:1034040042b101eb43107047002070470020704721
:0c341400002070470020704714c6002004
:020000040000fa
:1034200008b50b4bb3f90830002b08db590903f042
:103430001f03012202fa03f3064a42f82130044b2b
:1034400093f8203003b108bd034800f0e9fbfae728
:0c34500068c7002000e100e090c70020e9
:020000040000fa
:10345c0010b5044600f054f8b0b12046fff7bcff9d
:10346c00044678b1437843b900202075607520700c
:10347c000446fff7cfff204610bdfff713fe0023d5
:0c348c006370f1e70124f4e70124f4e789
:020000040000fa
:1034980038b5436813f4807f0446154610d0036995
:1034a80040699a4228bf1d462a4600f069fc6269b5
:1034b8005319636123695b1b23610023535538bd8e
:0a34c800db06fcd400f0d8fbf9e7a6
:020000040000fa
:1034d2004ff08443d3f89820a2b130b412f0010f18
:1034e2000cd101231c46ddb204fa03f1914306d04c
:1034f2000133072bf7d1002030bc7047002505703f
:083502000120f9e700207047e9
:020000040000fa
:02350a00fee7da
:020000040000fa
:10350c0008b50b4b93f820300bb1012008bd4ff6da
:10351c00ff71084800f0f0fa012801d00020f5e70f
:10352c00034bb3f90800fff779fe0120eee700bf6b
:08353c0068c7002090c70020c1
:020000040000fa
:1035440030b50c4a002312f8134024b902eb4303ac
:103554005b78184630bd01680d78a54209bf02ebbf
:10356400430301335b78013114bfdbb201600a2be2
:08357400e9d9eee7d03b0000ad
:020000040000fa
:10357c0007b54a68c0b2d2050b468df8070006d5d0
:10358c004a69511c5961107003b05df804fb0122ab
:10359c000df10701184600f06dfb10b19df8070006
:0835ac00f2e74ff0ff30efe7fa
:020000040000fa
:1035b40000090138202813d9b0f5007f05d2094b42
:1035c40003ebd00010f8040c7047b0f5e05f06d8a8
:1035d400044b03ebd01010f8040c103070473f205c
:0835e400704700bf002e00003b
:020000040000fa
:1035ec00082817d90c280cd910280cd914280cd958
:1035fc0018280cd920280cd9312834bf0e200f20c4
:10360c007047092070470a2070470b2070470c2028
:06361c0070470d2070470d
:020000040000fa
:023622007047ef
:020000040000fa
:103624000b4b012283f8562083f85720882183f816
:103634003b1083f8cc2083f8cd2083f8d02083f886
:10364400d120772283f8b620222283f8b82070474d
:0436540000800041b1
:020000040000fa
:103658000a4b0b4a1a604ff658729a814ff440325f
:103668005a601a46d369002bfcd1044a136843f008
:1036780002031360d369002bfcd170470004004398
:0436880004011040e9
:020000040000fa
:10368c0030b40d68b5f1ff3f02d000f1080202e042
:10369c00026904e01a4653681c68ac42fad95368b4
:1036ac004b6099608a605160086103680133036064
:0436bc0030bc704767
:020000040000fa
:1036c0000a4b586c20f4605020f018004004400c65
:1036d0009b6913f0010f08d0044a936923f001039a
:1036e0009361936913f0010ffbd17047000400420e
:020000040000fa
:1036f0004ff08443586c20f4605020f018004004d0
:10370000400c9b6913f0010f09d04ff0844293697c
:1037100023f001039361936913f0010ffbd170470c
:020000040000fa
:103720000a4b5b8b13f0070f0ed0084b80221a76e2
:1037300007225a831b7e13f0040f05d0034b9a6aad
:103740001a7e12f0040ffad1704700bf0004004344
:020000040000fa
:1037500070b506460d4601fb00f04830fff740f912
:10376000044648b155b100f148032360e66325647f
:1037700001212046fff7fcf8204670bd0346f4e720
:020000040000fa
:103780002de9f843002580460e4617462c4601f1e8
:103790000409bc4202db2846bde8f88359f834200e
:1037a00056f83410404600f0cbf901340544f0e7f8
:020000040000fa
:1037b00070b505462c68e30701d500200fe02046d0
:1037c000fff7f8fe064600f08df92868a042f1d117
:1037d00020f00100281a3146fff79afb012070bd46
:020000040000fa
:1037e0002de9f843002580460e4617462c4601f188
:1037f0000409bc4202db2846bde8f88359f83420ae
:1038000056f83410404600f0b9f901340544f0e7a9
:020000040000fa
:1038100053b94ab9002908bf00281cbf4ff0ff3137
:103820004ff0ff3000f040bbadf1080c6de904ce65
:10383000fdf744f8ddf804e0dde9022304b0704749
:020000040000fa
:10384000426822f00102531a102b30b40dd94418eb
:1038500041f0010543f0010345506360835045602a
:0e38600004f1080030bcfdf7a9bf30bc704772
:020000040000fa
:02386e007047a1
:020000040000fa
:1038700008b54ff0200383f31188bff36f8fbff3b8
:103880004f8ffdf793fe18b1034b4ff080521a6033
:0c389000002383f3118808bd04ed00e064
:020000040000fa
:10389c00084b1b681b6823b9074b4ff0ff321a60ab
:1038ac007047044b1b68db68db685a68024b1a6074
:0c38bc00704700bf38c800204cc8002036
:020000040000fa
:1038c80070b505466c68e30701d500200de0204679
:1038d800fff76cfe064600f001f96b68a342f1d1d0
:0c38e80028463146fff710fb012070bda0
:020000040000fa
:1038f400074b1968024609b9064919601868064950
:1039040002448a4294bf1a604ff0ff30704700bff0
:0c3914006cc8002068c9002068cd0020ad
:020000040000fa
:10392000802910db812901dd83290cd1136807333d
:1039300023f0070303f108011160d3e90023c0e974
:0a39400000230120704700207047ab
:020000040000fa
:10394a0070b5002902fb01f614460d4618bf14464d
:10395a0001463246184608bf002400f08cf9864218
:0a396a0018bfb0fbf5f4204670bd55
:020000040000fa
:1039740008b5074b988980b2064a50604cf2ff3173
:1039840099819b8913680bb19168984708bd00bf62
:083994000024004014c80020cb
:020000040000fa
:10399c0010b5084c2368196800f06cf8002807db98
:1039ac0023680a20196800f061fac00f404210bd6c
:0839bc000120fbe75cc90020bb
:020000040000fa
:1039c40090f948305a1e1343426880f8483012f088
:1039d40004031bbf42f010024260c0e90f334ff0f2
:0839e400ff3008bf18467047d0
:020000040000fa
:0439ec000020704700
:020000040000fa
:1039f000074b19680868b0e8f04f80f30988bff3f7
:103a00006f8f4ff0000080f311887047aff3008094
:043a100034c8002096
:020000040000fa
:103a140010b5024600210120fff798fe044638b194
:103a2400002181600160c1600b460a46fdf79afce3
:043a3400204610bd5b
:020000040000fa
:103a38000369416882688a60416851605a688242b5
:103a480004bf82685a60002202611a68013a1a604b
:043a58001868704733
:020000040000fa
:103a5c000fb407b5064b04aa1b6852f8041b186870
:103a6c00019200f0bdf803b05df804eb04b07047b0
:043a7c005cc9002001
:020000040000fa
:103a800070b50e46054600f0b9f9334604460246c5
:103a900001212846fff759ff001b18bf4ff0ff30e8
:023aa00070bdf7
:020000040000fa
:023aa20070476b
:020000040000fa
:103aa40028b9064bd3f8a40000f07f007047034bfd
:103ab400d3f8b40000f07f00704700bf0004004258
:020000040000fa
:103ac4004ff0200383f31188bff36f8fbff34f8f41
:103ad400024a136801331360704700bf60c90020b5
:020000040000fa
:103ae400064b013053f830203ab9c100a1f1080265
:103af4001a44194443f830204a60704748b40020ff
:020000040000fa
:103b040008b54ff6ff73994208bf4ff0ff310068c4
:0e3b1400fdf708f9012814bf0020012008bdac
:020000040000fa
:103b220030b94ff08443d3f8a40000f07f0070470f
:0e3b32004ff08443d3f8b40000f07f007047da
:020000040000fa
:103b400038b550b952b10c46012529462046fff739
:0e3b500087fa0028f9d0012000e0002038bddf
:020000040000fa
:103b6000054a138823f002031b041b0c13801369fe
:0c3b700013f0020ffbd17047002400404e
:020000040000fa
:103b7c0038b50d461446012801d0204638bd2146e3
:0c3b8c002846fff729fb0028f9d0f6e7d7
:020000040000fa
:103b980010b50c46044b19681831fff773fd012165
:0c3ba8002046fef731fa10bd34c80020a2
:020000040000fa
:103bb400054b1b6823b1044b1a68936c013393645f
:0c3bc400014b1868704700bf34c8002097
:020000040000fa
:103bd00068076c094c836a9074a07ac0008068887a
:0c3be00000846c820081286e696c290052
:020000040000fa
:103bec0013b50446019201aafcf7e8fc636813f0d4
:0c3bfc00100f18bf4ff0ff3002b010bdda
:020000040000fa
:103c080003680bb10020704710b504460120fff788
:083c1800fdfe2060012010bd3b
:020000040000fa
:103c200008b500231a4619460068fdf79dfb0128d8
:083c300014bf0020012008bdb3
:020000040000fa
:103c3800044a138843f002031380136913f0020f38
:083c4800fbd17047002400408d
:020000040000fa
:103c5000034b1b680360034b1b684360704700bf46
:083c600050c8002058c80020e4
:020000040000fa
:103c680010b50446fff7aafe28b9a368e268c4e9bc
:083c780005331344a36210bde3
:020000040000fa
:103c800010b4c46a1cb123465df8044b18470068a1
:083c90005df8044bfff772bf61
:020000040000fa
:103c980010b50446fff712ffa46b00f039f8b4fa28
:063ca80084f0400910bd8c
:020000040000fa
:103cae0000f1080343604ff0ff328260c36003618e
:063cbe00002303607047c3
:020000040000fa
:103cc40043684b609a688a60516099600861036830
:063cd4000133036070479c
:020000040000fa
:103cda000068002808b501da002008bdfff705fed4
:063cea00431cfad1f8e7cb
:020000040000fa
:103cf000034b1b6d034214bf01200020704700bf1f
:043d00000004004279
:020000040000fa
:103d0400453e0000393c0000613b0000913e00004c
:043d140000000000ab
:020000040000fa
:103d1800034a1368013b13600bb983f3118870479a
:043d280060c900204e
:020000040000fa
:103d2c0008b500f0a7f8024b1860586008bd00bf3a
:043d3c0028c8002073
:020000040000fa
:103d4000eff3108072b6bff35f8fb0fa80f04009d6
:023d50007047ba
:020000040000fa
:103d520018b1bff35f8f62b6704772b6bff35f8f61
:023d62007047a8
:020000040000fa
:103d64004ff0200383f31188bff36f8fbff34f8f9e
:023d7400fee768
:020000040000fa
:103d76004ff0200383f31188bff36f8fbff34f8f8c
:023d8600fee756
:020000040000fa
:103d880010b500239a4200d110bdcc5cc454013355
:023d9800f8e74a
:020000040000fa
:103d9a004ff084431b6d034214bf0120002070477b
:020000040000fa
:103dac00024b40f204521a80704700bf00400041a1
:020000040000fa
:103dbc00024b187ec0f38000704700bf0004004324
:020000040000fa
:103dcc00024a136801331360704700bf44c80020d7
:020000040000fa
:103ddc0000294ff480630cbf02220022fff7b2b916
:020000040000fa
:103dec0002440346934200d1704703f8011bf9e7e4
:020000040000fa
:103dfc0003461a46013311780029fad1101a70477c
:020000040000fa
:103e0c0008b5fff78dfffff72cfdfff72afd08bd66
:020000040000fa
:0e3e1c00a0f14103192b98bf40f02000704721
:020000040000fa
:0e3e2a00a0f16103192b98bf00f05f007047f4
:020000040000fa
:0c3e3800014b1865704700bf00040042f9
:020000040000fa
:0c3e4400014b18609960704714c8002002
:020000040000fa
:0c3e5000014b986a704700bf000400435b
:020000040000fa
:0c3e5c00014b01221a6070475cc8002076
:020000040000fa
:083e68004ff084431865704718
:020000040000fa
:083e7000043d00000b000000fe
:020000040000fa
:083e780008b5fff757fa08bd79
:020000040000fa
:083e800000487047e0c8002073
:020000040000fa
:073e8800286e756c6c290027
:020000040000fa
:063e90004ff48060704752
:020000040000fa
:063e96000068fff770be9a
:020000040000fa
:063e9c004ff0ff307047fb
:020000040000fa
:043ea2000020704745
:020000040000fa
:043ea800704700bfa0
:020000040000fa
:043eac00002070473b
:020000040000fa
:0200000400807a
:044000003912003c35
:020000040000fa
:0200000400807a
:044004008000a82a66
:020000040000fa
:0200000400807a
:04400800ffffffffb8
:00000001FF
