:020000040000fa
:10000000f8ff0320dd330000a73a00005340000052
:100010009b44000003460000ef4700000000000082
:10002000000000000000000000000000214b000064
:100030003342000000000000913b000071490000c5
:10004000e3370000e3370000e3370000e337000048
:10005000e3370000e3370000e3370000e337000038
:10006000e3370000e3370000e3370000a14a000057
:10007000e3370000e3370000e3370000e337000018
:10008000e3370000e3370000e3370000e337000008
:10009000e3370000e3370000e3370000e3370000f8
:1000a000e3370000e3370000e3370000e3370000e8
:1000b000e3370000e3370000e3370000e3370000d8
:1000c000e3370000e3370000e3370000e3370000c8
:1000d000e3370000e3370000e3370000e3370000b8
:1000e000e3370000e33700000000000000000000dc
:1000f00000000000e3370000e3370000e3370000b2
:10010000e3370000e3370000e3370000e337000087
:10011000e3370000e3370000e3370000e337000077
:10012000e3370000e3370000e3370000e337000067
:10013000e3370000e3370000e3370000e337000057
:10014000e3370000e3370000e3370000e337000047
:10015000e3370000e337000000000000000000006b
:10016000000000000000000000000000000000008f
:100170000000000000000000e3370000e33700004b
:10018000e3370000e3370000e3370000e337000007
:1001900000000000e3370000e3370000e337000011
:1001a000e3370000e3370000e3370000e3370000e7
:1001b000e3370000e3370000e3370000e3370000d7
:1001c000e3370000e3370000e3370000e3370000c7
:1001d000e3370000e3370000e3370000e3370000b7
:1001e000e3370000e3370000e3370000e3370000a7
:1001f000e3370000e3370000e3370000e337000097
:10020000e33700000000000000000000e3370000ba
:10021000e3370000e3370000e3370000e337000076
:10022000e3370000e3370000e3370000e337000066
:10023000e3370000e3370000e3370000e337000056
:10024000e3370000e3370000e3370000e337000046
:10025000e3370000e3370000e3370000e337000036
:020000040000fa
:10026000f8b500bff8bc08bc9e46704701440000ca
:10027000f8b500bff8bc08bc9e467047dd430000df
:020000040000fa
:0802800030180000010000002d
:020000040000fa
:100288002de9f04f2ded028bd2e9008997b0cde929
:100298000c138b6808930b690f90d1e900b614937f
:1002a800cd68002200234046494604f033fa40b99d
:1002b8001bf0040f32d11bf00803059330d0202324
:1002c80003e089f0004399462d232b70089b03f126
:1002d800ff3a012305934c4929f0004300208b4243
:1002e80008bf80451fd10d9b413b192b059b94bf2f
:1002f800464947492b44184604f04cfe284604f06a
:1003080009fecdf800b00246089b0f98294603f075
:10031800a7f917b0bdec028bbde8f08f2b23d4e70b
:10032800ddf820a0d7e7994208bf404509d20d9bc8
:10033800413b192b059b94bf364937492b44184636
:10034800dae7002200234046494604f033fa9feddd
:100358002c7b8ded027b48b300240d9804f0fafd48
:10036800002ec3b20993c0f2e781672b5ad1002e41
:1003780008bf0126231d02dbb442c0f2ca816527eb
:1003880061e09ded067b8ded027b01340022234b5d
:10039800dde9020102f092f842464b46cde906013a
:1003a80004f09cf90028ecd000271fe00446ede794
:1003b80014f5967f11da87b90022194b4046494651
:1003c80002f07cf8002280468946154bdde90201df
:1003d80002f074f8cde902010127dde902010022eb
:1003e8000e4b01f0defdcde90201013cdde90223ff
:1003f8004046494604f08ef90028d9d1ade700bf40
:10040800000000000000f03f0000f07f4c4f0000ab
:10041800504f0000544f0000584f00000000244087
:1004280000005043099f662f06f101060bd1002cee
:1004380004da9fedbb7b8ded027b0024099b672bc3
:1004480018bf361966279ded027bcde906898ded2b
:100458000a7b00230e93dde90a23dde9060101f09a
:10046800a0fd41ec100b02f0b3fc51ec100bb0ee08
:10047800408af0ee608a03f0fffeb0ee480af0ee24
:10048800680a069b1093079b159083f0004311930d
:100498009ded0a1b9ded102b04f0a8fa53ec102bd0
:1004a80083f000430793dde90a01a14b8ded060aad
:1004b800002201f076fd0e9b01339e42cde90a0130
:1004c8000e93c8d100229b4b01f0f8ffcde90a0139
:1004d80002460b46dde9060104f01cf9002840f04d
:1004e8008580dde90a23dde9060104f063f910b12e
:1004f800159bda077ad5dde90a234046494601f01b
:1005080031fc0022cde90601894bdde9020101f049
:10051800d5ffdde90623cde90a0104f033f8002808
:1005280069d0662f04f1010469d10136a146a9eb0f
:10053800060310934ff000080bf01003059ecdf84a
:1005480008801593109b994540f08380029b002bef
:1005580000f0c9800022652f05eb0600aa5529d1b5
:10056800149b1499013b9442ea54c1f1030ebcbf99
:10057800644201220a21002c40f0bc800eeb030cdf
:10058800bcf1000f00f3b680002a03f1ff3114bf5d
:100598002d222b226a540d9a413a023b192a98bf00
:1005a80045279e4205eb0301ef54aaf1020a01da3e
:1005b80004f0f0fc0bf00303022b7ff49faebaf1ba
:1005c800000f7ff79bae284604f0a4fc05eb0a0356
:1005d800059a824240f39980059b2b44184652465f
:1005e800302104f08ffc0023089387e69fed4e7bb3
:1005f8008ded0a7b7fe79ded027b8ded0a7b652ff4
:1006080014bfa1464ff0000991e7029a52b9b9f117
:10061800000f07da0e992e226a54012201360af1d8
:10062800ff3a029205eb0801aa19314403e04ff0a2
:10063800300002f8010b9142f9d108eb0602303381
:10064800aaeb080808f1ff3a561cab544ff0000813
:1006580027e00c9b0e961b69053bb3427ff676afed
:10066800dde90a23dde9060101f09bfc41ec100bf2
:1006780002f0aefb51ec100bb0ee408af0ee608a4f
:1006880003f0fafd159a09280346a8bf0923024377
:10069800bbd1099a672ab8d1b9f1000fc2da08f1bb
:1006a8000108069b1293079bb0ee480af0ee680a11
:1006b80083f0004313939ded0a1b9ded122b04f06c
:1006c80095f953ec102b83f000430793dde90a01f9
:1006d8000022174b8ded060a01f063fc09f1ff3982
:1006e800cde90a012ee71bf0100f1ebf2e23ab55d4
:1006f80001362fe7b4fbf1fc013b01fb1c4430340d
:10070800ec540af1ff3a644635e72a5c1a5401387a
:100718005ee7002cbff696ae662784e6062629e635
:10072800000000000000f03f000000000000000092
:100738000000244000001440099b672beed01f46a0
:04074800062670e62b
:020000040000fa
:04074c0003f0e6ba16
:020000040000fa
:100750002de9f04f95b0cde912030b68089392eda7
:10076000007b4b680a938b6809930b690d93cc68e7
:100770000022002351ec170b8ded047b03f0ceff1c
:1007800040b9089b580734d4089b13f0080732d0af
:10079000202306e0dde9042181f00043cde90423b4
:1007a0002d232370099b01275a1edde90403dff87e
:1007b000f8b223f000414ff0000a594508bf5045f8
:1007c0001bd1139b413b192b04eb070094bfb0498d
:1007d000b04904f0e3fbaf4804f0a0fb089b009392
:1007e0000246099b1298214602f03eff15b0bde873
:1007f000f08f2b23d5e7099ad7e7139b8b45a3f1fd
:10080000410308bf82450b9309d2192b04eb070063
:1008100094bfa149a14904f0c1fba048dce7302105
:10082000e1550b997b1c1a2934bf58217821e154da
:10083000931e079300220023dde90401023703f031
:10084000bdff002800f07b819fed8f7b8ded027b4b
:1008500000260a9bdde90289002bdde904abb8bf65
:1008600018230e93002542464b465046594601f048
:100870009cfb41ec100b02f0affa42464b4651eca8
:10088000100b8ded100b01f01dfe02460b4650467d
:10089000594604f091fb824b82468b4640464946be
:1008a000002201f00ffe6b1c0c930a9b002b80466c
:1008b000894606da002200235046594603f07eff9f
:1008c00028b90e9bab4200f3408101330c93002208
:1008d000744b4046494601f0f5fd80468946024684
:1008e0000b465046594603f019ff002840f02f816f
:1008f00042464b465046594603f060ff30b1dde9b1
:10090000100103f0bdfcc10740f1218142464b4676
:10091000dde9040101f02afacde90401dde9042151
:1009200021f00043604900208b4208bf82423ff41f
:1009300048af4ff000083d46c246c1460d9b053bff
:10094000ab42ab4633d9dde90223dde9040101f016
:100950002cfb41ec100b02f03ffa51ec100b8ded2b
:100960000e0b03f08dfc002840f0f680b9f1000f6b
:1009700000f0f28008f10108dde90223dde90e0153
:1009800001f0a0fd02460b46dde9040104f014fb72
:10099000434bcde904010022dde9020101f092fda3
:1009a0000c9b09f101094b45cde90201c6d1baf111
:1009b000000f1dd1b8f1000f00f015810a9b002b2c
:1009c00040f31181089bda0700f10d812e2308eb1b
:1009d0000502635522446319302103f8011f9a422e
:1009e000fbd1079b45446fea080843440135079350
:1009f0000d9b0d990022013b9642625504eb0500c8
:100a0000e254bcbf76420122c1f1020e4ff00a0847
:100a1000002e40f0d8800eeb030cbcf1010f00f06b
:100a2000d280002a03f1ff3114bf2d222b22625401
:100a30000b9a023b1a2a34bf502270229d4204ebcb
:100a40000301e25401da04f0a9fa089b03f003035e
:100a5000022b14d1079ba3f10208b8f1000f0edda1
:100a6000204604f05bfa04eb0803b84280f2b7803a
:100a700042463021e01904f049fa00230993204648
:100a8000aae600bfaff30080000000000000f03fc6
:100a90003c4f0000404f0000444f0000484f000012
:100aa0000000b03f000020400000f07fcde9028947
:100ab0000136dde902231046194601f057f9804658
:100ac000894602460b46dde9040103f027fe0028b3
:100ad000ecd0dff82cb1dff82c914ff0000a4ff08a
:100ae0000008dde90223dde9040103f017fe002818
:100af0003ff4afae52465b46dde9020101f0e2fc95
:100b00000022002303f05afe78b142464b46dde94d
:100b1000020101f0d7fc4246cde902014b46dde976
:100b2000040101f0cffccde90401dde902015246e8
:100b30005b4601f0c7fc013ecde90201d1e79fed24
:100b40002e7b06468ded027bb3e70c9d8be64ff0c6
:100b500000084ff00009d9e6baf1000f0bd1b9f146
:100b6000000f08d02e2304f80b30079b013b013502
:100b700007934ff0010a04eb080362192b4403e0ca
:100b80004ff0300102f8011b9a42f9d1079b05eba7
:100b9000080ba3eb08080b9b0928d4bf3030573053
:100ba000192b06d840f02003613b192b01d804f023
:100bb000dcf908f1ff330bf1010504f80b00079392
:100bc0004ff00008d8e60799b6fbf8fc013b08fb9c
:100bd0001c6630360139e6540791664618e7225cf8
:100be0001a54013841e7089bdb067ff501af2e233d
:100bf00063550135fce600bf000000000000f03f37
:080c00000000e03f000050433a
:020000040000fa
:100c08002de9f04f85b000208df80f0003f052f861
:100c1800b84c04f18c05284603f052ff04f1b000eb
:100c280003f04eff284603f04bffb34802f096f955
:100c380004f1d40003f044ff264604f5237301931e
:100c4800ae4c04f10708c8f180056be14ff40020b1
:100c580004f09af903f0f8fd10f0070001d0072816
:100c68001cd10df10f0003f06ffc002800f0628129
:100c780000233b607b60bb60fb6039469df80f003a
:100c880003f086fb30b1022310223946012001f01f
:100c9800c5ff4fe1019803f013ff4be1019803f002
:100ca8000fff47e1012004f06ff903f0cdfd10f0cc
:100cb800070001d007281ed1002003f097ff8246c5
:100cc800002800f03d81dff84cb2020100215846af
:100cd80004f018f95a465146002002f00df830b1d8
:100ce800002310225946504601f098ff28e1019848
:100cf80003f0e6fe24e1019803f0e2fe20e1102073
:100d080004f042f903f0a0fd10f0070001d0072815
:100d18001ed1012003f06aff8246002800f01681e8
:100d2800dff8f4b102010021584604f0ebf85a4606
:100d38005146012001f0e0ff30b10123102259464d
:100d4800504601f06bff01e1019803f0b9fefde0a8
:100d5800019803f0b5fef9e000236360a360e36047
:100d6800674a22603f22a271e21d02f8013f013367
:100d7800402bfad1634b40221a7006f52a7003f013
:100d88009ffe2146012002f02bfc20b106f53c70a5
:100d980003f096fec6e006f53f7003f091fec1e051
:100da80000236360a360e360574b23603f23a37174
:100db80004f147014346ea1803f8012f8b42fad1a0
:100dc800504bc0221a7006f5427003f079fe214696
:100dd800012002f005fc20b106f53c7003f070fe1e
:100de800a0e006f53f7003f06bfe9be00023636014
:100df800a360e3601a46454961f31c022260120ea3
:100e080042f04002e2703f22a271e21d02f8013f67
:100e18000133402bfad13b4b40221a7006f555702e
:100e280003f04efe2146012002f0dafb20b106f560
:100e38003c7003f045fe75e006f53f7003f040fe98
:100e480070e000236360a360e360314a62f31c032f
:100e580023601b0e43f04003e3703f23a37104f1aa
:100e680047014346ea1803f8012f8b42fad1254b74
:100e7800c0221a7006f5697003f022fe214601208f
:100e880002f0aefb20b106f53c7003f019fe49e014
:100e980006f53f7003f014fe44e0002262601a4b2e
:100ea80023600823a37122724ff0010984f8099086
:100eb8000222a2720322e2720422227305226273c2
:100ec8000622a2730722e2730e4a137006f57d709c
:100ed80003f0f6fd2146484602f082fb20b106f5f4
:100ee8003c7003f0edfd1de006f53f7003f0e8fdf2
:100ef80018e000bf7810000020a600200caa0020ef
:100f0800000068112cac00200000a411a5000010fe
:100f1800960000102ca900209ca9002006f1d400fe
:100f280003f0cefd514f4ff4002003f079ff002865
:100f38007ff48cae012003f073ff00287ff4b2ae7b
:100f4800102003f06dff00287ff4d9ae03f0c2ff34
:100f58000028e8d004f00cf8c0b230383d287fd81b
:100f680001a353f820f000bf610d0000a90d000097
:100f7800f50d00004b0e0000a30e000069100000e4
:100f88006910000069100000691000006910000075
:100f98006910000069100000691000006910000065
:100fa8006910000069100000691000006910000055
:100fb8006910000069100000691000006910000045
:100fc8006910000069100000691000006910000035
:100fd800691000006910000069100000250f00006a
:100fe8006910000069100000691000006910000015
:100ff8006910000069100000691000006910000005
:1010080069100000691000006910000069100000f4
:1010180069100000691000006910000069100000e4
:1010280069100000691000006910000069100000d4
:1010380069100000691000006910000069100000c4
:1010480069100000691000006910000069100000b4
:10105800691000006910000069100000250f0000e9
:1010680006f5886003f02cfd5ce700bfbca80020f3
:020000040000fa
:10107800205278204649464f30203a0020527820a6
:101088004649464f31203a0020527820427566661c
:101098006572203a00000000204e6577204d657388
:1010a800736167652052656365697665640d000044
:1010b8000001020304050607080c1014182030402c
:1010c800204d657373616765202d204944203a20bf
:1010d80030782578204c656e677468203a2030781f
:1010e800257820004d657373616765203a200000fc
:1010f80030782578200000000d000000202d2d2dcf
:101108002d2d2d2d2d2d2d2d2d2d2d2d2d2d2d2d07
:101118002d2d2d2d2d2d2d2d2d2d2d200d000000ab
:1011280020202020202020202020202043414e2045
:1011380046442044656d6f20202020202020202058
:10114800200d00004d656e75203a0d0a20202d2dca
:101158002053656c656374207468652061637469e5
:101168006f6e3a0d0a2020303a2053656e6420468f
:1011780044207374616e64617264206d6573736179
:10118800676520776974682049443a203078343597
:101198004120616e64203634206279746520646170
:1011a8007461203020746f2036332e200d0a2020e1
:1011b800313a2053656e64204644207374616e642e
:1011c800617264206d6573736167652077697468ff
:1011d8002049443a20307834363920616e6420360c
:1011e800342062797465206461746120313238205a
:1011f800746f203139312e200d0a2020323a2053c5
:10120800656e6420464420657874656e6465642064
:101218006d65737361676520776974682049443a1e
:10122800203078313030303030413520616e6420e4
:1012380036342062797465206461746120302074ca
:101248006f2036332e200d0a2020333a2053656e46
:101258006420464420657874656e646564206d6515
:10126800737361676520776974682049443a203050
:1012780078313030303030393620616e6420363481
:101288002062797465206461746120313238207479
:101298006f203139312e200d0a2020343a20536531
:1012a8006e64206e6f726d616c207374616e646120
:1012b8007264206d6573736167652077697468204f
:1012c80049443a20307834363920616e6420382019
:1012d800627974652064617461203020746f2037ee
:1012e8002e200d0a20206d3a20446973706c6179b4
:1012f800206d656e75200d0a0d0000002045727284
:101308006f7220696e207265636569766564206d09
:101318006573736167650d002020303a2053656e50
:1013280064204644207374616e64617264206d6544
:10133800737361676520776974682049443a20307f
:101348007834354120616e642036342062797465c2
:101358002064617461203020746f2036332e0d00b4
:101368002053756363657373200d0000204661691f
:101378006c6564200d0000002020313a2053656e12
:1013880064204644207374616e64617264206d65e4
:10139800737361676520776974682049443a20301f
:1013a8007834363920616e64203634206279746569
:1013b80020646174612031323820746f20313931f2
:1013c8002e0d00002020323a2053656e64204644da
:1013d80020657874656e646564206d6573736167f4
:1013e8006520776974682049443a20307831303074
:1013f800303030413520616e642036342062797493
:10140800652064617461203020746f2036332e0d9e
:10141800000000002020333a2053656e64204644c3
:1014280020657874656e646564206d6573736167a3
:101438006520776974682049443a20307831303023
:10144800303030393620616e642036342062797449
:101458006520646174612031323820746f2031391d
:10146800312e0d002020343a2053656e64206e6fb3
:10147800726d616c207374616e64617264206d6555
:10148800737361676520776974682049443a20302e
:101498007834363920616e6420382062797465208a
:1014a80064617461203020746f20372e0d000000b5
:1014b80020496e76616c696420496e707574200de0
:0414c800000000bf61
:020000040000fa
:1014cc002de9f04fadb00027dff8e4a203910646fa
:1014dc001546b8464ff0ff3903990b78002b00f0f6
:1014ec00f9800cabcde907890a938023cdf82480d1
:1014fc000b9300240b5d0bb1252b26d134b1224666
:10150c00304603f05bf8039b23440393039b1a7848
:10151c00252a40f0d78003f1010bcdf80cb00398cd
:10152c0003782b2b1ad025d8202b1bd0232b1dd086
:10153c002a2b27d002f0c3fe0990039b1a78303a6d
:10154c00092a2ed801330393f7e70134d2e7079b1e
:10155c0043f00103013007930390e0e7079b43f04e
:10156c000403f7e7079b43f00803f3e7079b43f0fb
:10157c001003efe72d2bead0302bd9d1079b43f08a
:10158c000203e7e72b681a1d1b682a600130002b49
:10159c000390099305da079a5b4282f001020792e5
:1015ac000993079bda0744bf23f002030793039bbd
:1015bc001a782e2a0dd1581ccdf8208003905a7819
:1015cc002a2a25d1023303932b681a1d1b682a6023
:1015dc00089303a803f064f8039b0190187803f0b8
:1015ec00b7fc6928019979d032dc632800f0c680f9
:1015fc0019dc252800f0d080612853d025238df8e4
:10160c001030cdf80cb0cdf81c80cde90898c0e0b6
:10161c0002f055fe0890039b1a78303a092ad8d864
:10162c0001330393f7e7642858d06728e6dc2a4691
:10163c0004a803f01afa002800f09c80039b5a1ca3
:10164c0003921b7804aa07a93046fef717fe38e070
:10165c00702873d015dc6e2800f087806f28cdd1f0
:10166c002b46002204a801f0cffc002800f0828059
:10167c00039b04aa013307a93046039302f0d4f963
:10168c001fe075283ad0782848d07328b6d1802925
:10169c0070d1039b2a6801330393131d2b601268ce
:1016ac0000235be02a4604a803f0dff9002861d090
:1016bc00039b5a1c03921b7804aa07a93046fff718
:1016cc0041f804443c44a7426edd384b4f221a606b
:1016dc004ff0ff3738462db0bde8f08f2b46012276
:1016ec0004a801f091fc002844d0039b04aa013308
:1016fc0007a93046039301f085fde2e72b46002253
:10170c0004a801f081fc002834d0039b04aa013307
:10171c0007a93046039302f06bfcd2e72b4600225c
:10172c0004a801f071fc28b3039b5a1c03921b788c
:10173c0004aa07a9304600f0e9ffc2e72b460022b5
:10174c00f02104a801f060fca0b1039b01330393ca
:10175c00dde90423134306d10023524607a9304682
:10176c0002f01afcade77823e2e72b463a1904a8fd
:10177c0001f0f3ff039b01330393a3e78029f9d115
:10178c00039b013303932b681a1d1b682a608df889
:10179c001030012304aae1e78029ebd1039b8df8db
:1017ac00100001330393f4e7274695e624ac0020a0
:0417bc00124d0000ca
:020000040000fa
:1017c00060ab00201c0000000000000014a60020f8
:1017d0000c0000000000000030ab002030000000d2
:1017e000000000001ca80020a00000000000000075
:1017f000e4ab002004000000000000001cad00204d
:101800000400000001000000aaaaaaaae8ab002078
:1018100004000000000000000000002000a0000004
:1018200000000000ecab00200400000000000000fd
:10183000f0ab00200400000000000000f4ab00202a
:101840000400000000000000f8ab002004000000cd
:10185000000000007caa00206400000000000000de
:10186000fcab0020040000000000000000ac0020e1
:10187000040000000000000004ac00200400000090
:101880000000000008ac0020040000000000000080
:101890000cac0020040000000000000010ac002090
:1018a0000400000000000000b4ab002014000000a1
:1018b00000000000c8ab0020140000000000000081
:1018c00014ac0020040000000000000018ac002050
:1018d000040000000000000020a60020fc01000021
:1018e000000000002cac00200100000000000000ff
:1018f000bca8002070000000000000002ca90020ff
:1019000070000000000000009ca900207000000092
:10191000000000000caa0020700000000000000081
:101920007cab00201c0000000000000098ab0020f1
:101930001c000000000000001cac0020040000009f
:1019400000000000e0aa002050000000000000009d
:1019500030ac00206c000000010000003cac002016
:1019600038ac00203cac0020000000002500000046
:1019700008a000200004000000000000000000009b
:101980000000000000000000000000000000000057
:101990000000000000000000db4f0000000000001d
:1019a0000000000000000000000000007d3d00007d
:1019b0000000000000000000000000000000000027
:1019c000000000000000000000a00020080400004b
:1019d00000000000fcac002020000000010000001e
:1019e00001000000030000000000000000000000f3
:1019f000000000000000000000000000dcab002040
:101a0000dcab0020080000000000000020ac00203b
:101a1000040000000000000008a400200c020000e8
:101a2000000000009cac00206000000001000000ed
:101a300001000000030000000000000000000000a2
:101a4000000000000000000000000000f13e000067
:101a5000000000000000000000000000cf4f000068
:101a6000df4f000000000000000000000000000048
:101a70000000000000000000000000000000000066
:101a80000000000000000000000000000000000056
:101a900024ac0020040000000000000028ac00205e
:101aa0000400000000000000000000000000000032
:020000040000fa
:101ab0002de9f04f099f154604468e461e46002b21
:101ac00040f0cc808a42b2fa82fc4cd9bcf1000fc3
:101ad0000bd0ccf1200801fa0cfe20fa08f802fa2b
:101ae0000cf548ea0e0e00fa0cf44fea15491ffafd
:101af00085f8befbf9fa210c09fb1ae30afb08fb87
:101b000041ea03439b452ad9eb180af1ff3004d27e
:101b10009b4502d9aaf102002b44a3eb0b03a4b20c
:101b2000b3fbf9f209fb123302fb08f844ea034461
:101b3000a04516d92c1902f1ff3303d2a04501d9d3
:101b4000931e2c44a4eb080443ea004027b124fa76
:101b50000cf400233c607b603146bde8f08f5046ba
:101b6000dbe71346eee702b9ffdebcf1000f2ed132
:101b70008b1a01264fea154eaab2b3fbfef8210cd0
:101b80000efb183308fb02f941ea0343994561d97a
:101b9000eb1808f1ff3004d2994502d9a8f10200f0
:101ba0002b44a3eb0903a4b2b3fbfef10efb1133ec
:101bb0004a4344ea0344a2424ed92c1901f1ff33af
:101bc00003d2a24201d98b1e2c44a41abce7ccf14b
:101bd000200e02fa0cf521fa0ef901fa0cf320faa4
:101be0000efe4eea03034fea154800fa0cf4b9fb67
:101bf000f8f11ffa85fe08fb1192180c01fb0ef696
:101c000040ea0242964221d9aa1801f1ff3003d2dc
:101c1000964201d9881e2a44921b9bb2b2fbf8f966
:101c200008fb192209fb0efe43ea02439e450fd929
:101c3000eb1809f1ff3604d29e4502d9a9f102063c
:101c40002b44a3eb0e0346ea004693e70846e3e77e
:101c50004e46f6e74046a4e70b46b6e78b4206d968
:101c6000002f7ed00026c7e90001304674e7b3faa2
:101c700083fcbcf1000f0fd18b4201d3824209d803
:101c8000841a61eb030e0120002f6dd0c7e9004ece
:101c9000002661e76046f7e7ccf1200e03fa0cf36b
:101ca00022fa0ef521fa0ef41d4301fa0cf320fa84
:101cb0000ef10b434fea154a00fa0cf6b4fbfaf9a1
:101cc0001ffa85f80afb19401c0c09fb08f144eacd
:101cd0000044a14202fa0cf23fd92c1909f1ff305d
:101ce00004d2a14202d9a9f102002c44641a9bb289
:101cf000b4fbfaf90afb194409fb08f843ea04416a
:101d000088452cd9691809f1ff3304d2884502d9d6
:101d1000a9f10203294443ea0040a1eb0801a0fb1a
:101d200002894945c2464c4602d306d1464504d2f3
:101d3000b8eb020a69eb05040138afb1b6eb0a0350
:101d400061eb040606fa0efe23fa0cf34eea0303d7
:101d500026fa0cf6c7e900369ae74846c6e74b462e
:0c1d6000d9e73e463846f7e63e46f5e679
:020000040000fa
:101d6c0030b591ea030f00f18280841a71eb030cf9
:101d7c0005d2121953eb0c03001b71eb0c0140f252
:101d8c00000ccff6e07c1cea430f52d0bceb410fa9
:101d9c005fd90c0da4eb135e5ff0010c6cf31f51bb
:101dac006cf31f53def1200c2ad303fa0cf5401907
:101dbc0041f1000122fa0ef5401923fa0ef56941a2
:101dcc0012fa0cf2cd0208d349085fea30005fea40
:101ddc00320228bf42f001020134013c5fea500c90
:101dec0072f1004250f1000051eb04514ff400131a
:101dfc0013eb410f38bf30bd6ff31301002030bd22
:101e0c00bef1200ebef1200f1ed223fa0ef54019a2
:101e1c0041f10001cef1200c124218bf012203fa4d
:101e2c000cf52a43cee711ea5c0f04bf0020002119
:101e3c0030bd1cea410f04bf01f00041002030bd51
:101e4c0001f00041002030bd21f4801101eb045160
:101e5c0030bd004218bf41f00101bceb410f08bf7f
:101e6c0030bd4ff0fe4141f47801002030bd83f0cd
:101e7c000043841a71eb030e07d28ef0004e001b48
:101e8c0071eb0e01121953eb0e0340f2000ccff65e
:101e9c00e07c1cea430fc6d0bceb410f72d90c0d91
:101eac00a4eb135ec90241ea5051c00241f000415b
:101ebc00db0243ea5253d20243f00043def1200c22
:101ecc0041d312fa0cf522fa0ef203fa0cf542ea9f
:101edc00050218bf42f0010223fa0ef3801a994151
:101eec00e30ac4f30a0411f0404f03d418d0013ca8
:101efc0040004941013c23d44205c00a40ea41500c
:101f0c00c90a51eac3715fea500c72f1004250f1f8
:101f1c00000051eb045130bd01002fd00020203cbb
:101f2c000029f9d0b1fa81fcdcf1200e11fa0cf188
:101f3c0030fa0ef510fa0cf02943a4eb0c04d9e797
:101f4c000020d90730bdaef1200ebef1200f0dd20e
:101f5c00cef1200c03fa0cf533fa0ef32a4318bf1a
:101f6c0043f00103c01a61f10001b9e721f000410f
:101f7c00c00a40ea4150c90a01eb045130bd0020af
:101f8c00002130bd004218bf41f00101bceb410ff4
:0e1f9c007ff467afbceb430f3ff463af30bd83
:020000040000fa
:101faa00f0b581ea030e0ef0004e40f20007cff6bc
:101fba00e07717ea41051ebf95ea070f17ea4304bf
:101fca0094ea070f00f0c5806d0da5eb545707f58d
:101fda0080674ff0004646eac12444ea5054c002e2
:101fea0046eac32343ea5253d202801a9c4104d2de
:101ffa000018644180185c41013f5b084fea3202d5
:10200a000025002140f001004ff0070604e0801a85
:10201a009c4136d340416441801a9c4136d34041a9
:10202a006441801a9c4136d340416441801a9c41e4
:10203a0036d340416441801a9c4136d340416441c1
:10204a00013e17d0801a9c4136d340416441801a20
:10205a009c4136d340416441801a9c4136d3404169
:10206a006441090201eb156190ea052520f0ff00a1
:10207a004540cce7801a9c4156d335e080185c4134
:10208a00c8d20018644180185c41c8d20018644163
:10209a0080185c41c8d20018644180185c41c8d2db
:1020aa000018644180185c41c8d200186441013e9e
:1020ba0017d080185c41c8d20018644180185c416e
:1020ca00c8d20018644180185c41c8d20018644123
:1020da00090201eb156190ea052520f0ff00454051
:1020ea00cce780185c411fd3420918bf44f00104b1
:1020fa00490101ebd56100f01f0000eb451021f406
:10210a00801141ea0e01013041f10001244208bf69
:10211a0020f00100b7f5006f3eda013f49dd01eb1f
:10212a000751bde8f0407047490101ebd56100f065
:10213a001f0000eb451021f4801141ea0e01b7f5aa
:10214a00006f29da013f34dd01eb0751bde8f040a9
:10215a007047004218bf41f00101124218bf43f014
:10216a000103b7eb410f2cbfb7eb430f1ce0b7ebf2
:10217a00410f04bfb7eb430f16e017ea410f04bf44
:10218a0017ea430f10e017ea410f12d017ea430f7c
:10219a0002d0b7eb430f0cd04ef0fe4141f4700170
:1021aa000020bde8f04070474ff0fe4141f478014d
:0621ba00f6e77146f4e7b0
:020000040000fa
:1021c0002de9f04f87b0039003a802f027f900280b
:1021d00003da002007b0bde8f08f039b1b095d1eea
:1021e000202d0fd9023b5e4ab3f5007f35bf02ebcd
:1021f000d30302ebd31313f8045c13f8045c34bf6d
:10220000013511350123a5f12001c5f1200203faa2
:1022100001f923fa02f203fa05f8d8f1000849eab5
:10222000020969eb4909cde90089dff84081dff84f
:1022300030914746d8e90023009902ea010a019942
:1022400003ea010b5aea0b0342d1039b05a81033a2
:10225000059302f0cafd18b9424b0c221a60b9e787
:10226000d8f80852a84206d0059b103b05930123dd
:1022700000f110058360059bea18012143f001037a
:10228000b5f1080442f8083c42f8041cc7f80822db
:1022900045f8043c9dd0204602f00afb88b155f871
:1022a000083c55f8041c23f00103e31a5a6822f095
:1022b00001020a445a6055f8041c21f001016250e1
:1022c0001c462046039902f03bfb04f1080081e71d
:1022d0005446254bbaf1000f34d1cbf1000000ea8f
:1022e0000b00434309ebd36393f83c602036304640
:1022f00002f090fc731c57f8334007ebc303083b14
:102300009c4297d0272e26dd0235ae4201dc3f2ebf
:1023100021d16268039922f00102551a284602f081
:10232000a9f9864217d1e068a6686318d8609e6054
:1023300083609868c36041f0010060505d60a55003
:102340006060bee7caf100002040434309ebd3635d
:1023500093f83c60cbe73146204601f0f7fdb0e74b
:10236000943e000024ac002029e66b0708a400205e
:020000040000fa
:102370002de9f04184b0044601914ff00008464633
:1023800045464f4f43e0013ba36323684bb12369ac
:102390005bb902f03ffd4ff00108404604b0bde8d4
:1023a000f08102f08ffca060f1e704f1100001f071
:1023b00007fb0028edd0424b4ff080521a60bff36c
:1023c0004f8fbff36f8fe4e702f024fd4ff000085a
:1023d000e3e702a802f0c4fc23e002f0fbfba068e4
:1023e00000f0c2fe804602f015fd40e0204601f0fc
:1023f0007bf900f0a5fb09e0204601f075f900f03b
:102400009ffb204602f0d0fc002844d1012602f0b8
:10241000e1fba36b002bb6d1019b002bd4d0002e87
:10242000d7d002f0f7fc02f061fd02f0d3fb94f884
:1024300044305bb2b3f1ff3f08bf84f8445094f8d6
:1024400045305bb2b3f1ff3f08bf84f8455002f05e
:10245000e1fc01a902a801f0c1fc0028ccd1204672
:1024600002f0a2fc0028c1d02368002bb5d001994e
:1024700004f1240002f018fc204601f035f900f0c8
:102480005ffb0028c2d14ff080533b60bff34f8ffa
:10249000bff36f8fbae7b8f1000f3ff47eaf02f0e1
:1024a00099fb616a19b1236b1968c1f10501a06834
:1024b00001f05af802f0aefc4ff000086de700bfe3
:0424c00004ed00e047
:020000040000fa
:1024c400f0b540f2ff7681ea030c16ea115e1ebff6
:1024d400b64516ea1355b54252d021ea465141f4a5
:1024e4008011a1fb024723ea465343f48013ae4410
:1024f400a0fb03650cf0004c36197d41a1fb03479a
:1025040047f10003a0fb0217f619654153f10003dc
:10251400094218bf46f0010640f2fe74b3f5007f8d
:1025240013d2aef5806ea64523d24cea03312803bc
:1025340041ea155140ea16503203450872f100424f
:1025440050f1000051eb0e51f0bdaef2ff3ea64536
:102554000fd24ceac321e80241ea555140ea5650f1
:10256400f202450872f1004250f1000051eb0e51a5
:10257400f0bd1eea0e0f2dd50cf000410020f0bd79
:1025840016ea115f04bf01f000410020004218bfa9
:1025940041f0010116ea135f04bf03f00043002277
:1025a400124218bf43f0010306ea1354b44218bfa1
:1025b400b64503d00cf000410020f0bd21f00041ed
:1025c40023f00043b1eb065f0cd8b3eb065f09d8e8
:1025d40041b13bb10cf0004141f0fe4141f47001c6
:1025e4000020f0bd40f20001c7f6f8710020f0bdf4
:020000040000fa
:1025f4002de9f04784b00446884601921d464ff009
:1026040000094e46424f33e02a464146204601f037
:102614005ff9636a73b938b13d4b4ff080521a6069
:10262400bff34f8fbff36f8f02f0f2fb012004b0b2
:10263400bde8f08704f1240001f0c0f90028f3d0cc
:10264400334b4ff080521a60bff34f8fbff36f8f3d
:10265400eae702f0ddfb0020e9e702a802f07efbd6
:1026640014e0204601f03ef800f068fa4ff001094a
:1026740002f0aefaa26be36b9a42c5d3022dc3d02b
:10268400019b002be5d0b9f1000fe6d002f0c0fbae
:1026940002f02afc02f09cfa94f844305bb2b3f1e5
:1026a400ff3f08bf84f8446094f845305bb2b3f14f
:1026b400ff3f08bf84f8456002f0aafb01a902a805
:1026c40001f08afbe8b902f083fad4f838a0d4f810
:1026d4003c9002f09dfbca45c3d1019904f110005e
:1026e40002f0e0fa204600f0fdff00f027fa00288f
:1026f400bcd14ff080533b60bff34f8fbff36f8f5c
:10270400b4e7204600f0eeff00f018fa00208ee750
:0427140004ed00e0f0
:020000040000fa
:102718002de9f04fd1e901590e68d1f80c808bb042
:10272800002da8bf26f002060393b8bf012516f0b6
:10273800100302900f460493d2e900ab37d05aea4f
:102748000b0334d0a9f102033c6916f0080104f127
:10275800ff3405914ff0000108f8041006f002015b
:102768000691039918bf03f1ff335b1b4139012c14
:102778001fdc049b002b4cd1059b1bb1013c202383
:1027880008f804303a690096013a4b46121b08ebe8
:102798000401029800f064ff029b5b68db0503d527
:1027a8007b689842b8bf18460bb0bde8f08f4b461f
:1027b800cae75aea0b0007d1002d05dc5819002892
:1027c800d7dd06980028d4d00af00f000928d4bf16
:1027d80030305730192904f1ff340ed840f0200c5e
:1027e800acf1610cbcf1190f07d8cde9083107929b
:1027f80002f0b7fbdde90831079a08f804004fea50
:102808001a1040ea0b704fea1b1c013d8246e34652
:10281800ade7d2e900231343aed008eb0403039ad3
:0e28280003f8012c023c302308f80430a4e72a
:020000040000fa
:022836007047e9
:020000040000fa
:102838002de9f047384b1b68002b67d1374b1f68d1
:1028480001371f60bfb1364b1b68bb4220d900253a
:10285800344b1b68db6a03eb83039b00324ad35873
:10286800022b28bf0125314b1b68002b18bf0125ff
:102878002846bde8f0872e4a11682e4b186810606c
:1028880019602d4a13680133136002f083f8dae700
:102898000025dff89c80dff8a890dff88ca021e005
:1028a8001f4b4ff0ff321a60d2e71d4a1360cfe783
:1028b80004f1180002f054f9e06ad9f80020012365
:1028c80083401343c9f8003000eb800031460aeb1f
:1028d800800002f07bfa134b1b68e26adb6a9a42bb
:1028e80028bf0125d8f800301b68002bd8d0d8f8ad
:1028f8000030db68dc6863689f42d6d3261d30460b
:1029080002f02ef9a36a002bd2d1d5e70b4a13683f
:10291800013313600025abe700ac002014ac0020a5
:1029280008ac0020f0ab00207caa002018ac0020e6
:10293800f4ab0020f8ab00200cac002010ac002059
:0429480004ac0020bb
:020000040000fa
:10294c00374b00221a7403f50063364a9a621a4612
:10295c00536813f0100ffbd1334b4222c3f8842081
:10296c001a46d2f8843013f0400ffad02f4b0022c5
:10297c009a6377225a631a46d36b13f0040ffbd178
:10298c002a4b022283f830201a46d36b13f0020f25
:10299c00fbd1264a136c03f00303032bfad1244b0f
:1029ac0001225a711a46d37813f0010ffbd01e4b3b
:1029bc00204a1a621a46536813f0040ffbd11a4bc3
:1029cc001d4a5a621a46536813f0080ffbd1164b76
:1029dc004122c3f8ec201a46d2f8ec3013f0400f29
:1029ec00fad0114b4122c3f8f0201a46d2f8f0303d
:1029fc0013f0400ffad00c4b4122c3f80c211a46ad
:102a0c00d2f80c3113f0400ffad0094b6ff07f4223
:102a1c001a6140f2ff725a6102221a62704700bfbb
:102a2c000014004006013000001c00400010004063
:0c2a3c0000080040070101000701020033
:020000040000fa
:102a48002de9f84300286ad050f8043ca0f10804a6
:102a580023f00106a719a259934200d0ffde7a6835
:102a680023681340da070fd4204601f01dff002821
:102a780057d1384601f0a4ff0028f0d07b6823f036
:102a880001031e441f44eae746f001036360304631
:102a98003b6001f0ebfd054602f0b8f823687a6860
:102aa8001340db07e0d5dff88ce0dee90089c5f1eb
:102ab800200ca5f1200228fa05f009fa0cfc29fae5
:102ac80002f240ea0c001043012100ea010200234f
:102ad8001343c5f120007346a5f1200212d121fa53
:102ae80000f001fa02f2a94042ea00021ebfdef835
:102af80000000143cef8001022b1def804100a43aa
:102b0800cef80420681c03ebc003a3f1080266603a
:102b18003e60a2605a68e2605c60e3689c60bde861
:102b2800f883236823f00103e41a636823f00103a0
:082b38001e449ee708a40020e2
:020000040000fa
:102b40002de9f04102f046f82d4b1a68013a1a605f
:102b50001b68002b4dd12b4b1b680bb9002449e09f
:102b60000024294e294fdff8b880336803b3f36897
:102b7000dc6804f1180001f0f7ff251d284601f07c
:102b8000f3ffe06a3a680123834013433b6000eba4
:102b90008000294608eb800002f01cf91c4b1b68e2
:102ba000e26adb6a9a42e0d31a4b01221a60dce740
:102bb0000cb101f0f3fe184b1c686cb1154e0125e9
:102bc00001e0013c05d0fff737fe0028f9d0356061
:102bd000f7e7114b00221a600e4b1c6854b10f4be3
:102be0004ff080521a60bff34f8fbff36f8f0124f5
:102bf00000e0002402f00ef92046bde8f08100bf9d
:102c000000ac0020fcab0020b4ab002004ac0020e2
:102c1000f0ab002018ac002010ac002004ed00e068
:042c20007caa00206a
:020000040000fa
:102c24002de9f04f87b001900f4692467bb1012bfe
:102c340011d0022b13d0019b002b54d04fea0a1a57
:102c44004ff00008dff8a49009f1400b17e0274883
:102c540001f09affefe7264801f096ffebe72548dd
:102c640001f092ffe7e709f1880001f02bff5744d8
:102c740008f101085ffa88f8019b434533d01e48e8
:102c840001f020fffb7813f0400f3e6814bfc6f339
:102c94001c06c6f38a46bc7904f00f049be80f00b7
:102ca40002ad85e80f0006ab1c4414f8105c2a46fc
:102cb400314609f1500001f067ff09f1740001f099
:102cc40063ff002dcfd0fc1d013d07f1080353fa2b
:102cd40085f509f1800614f8011f304601f054ff10
:102ce400ac42f8d1bfe707b0bde8f08f7810000020
:0c2cf4008410000090100000a0100000f0
:020000040000fa
:102d0000002a62d02de9f041134620b1012830d0cd
:102d10000020bde8f0812e4ad2f8a420c2f305229b
:102d200001b301395ffa81f84ff0000cdff8a4e03d
:102d300000e0a446def8004004eb02142768666851
:102d4000a568e4681f605e609d60dc60614509d035
:102d500010330132d2b2072a08bf02460cf1010437
:102d6000e045e6d102f03f02194bc3f8a82001204c
:102d7000cfe7174ad2f8b420c2f30522f1b10139e6
:102d80005ffa81fe0024dff84cc000e00446dcf866
:102d9000040000eb0210076846688568c0681f6081
:102da0005e609d60d8608c4208d010330132d2b290
:102db000072a08bf0022601c7445e7d102f03f02d9
:102dc000034bc3f8b8200120a3e70020704700bfe1
:082dd000000400427cab00206e
:020000040000fa
:102dd80053ec102bc3f30a512de9f04140f2fd707a
:102de8004e1e86421d4645d8a1f2ff30002835db2d
:102df800332831dc284bc0f120084ff0ff3c03faa0
:102e080008f2a1f21f412cfa00fc10ee104a4cea1d
:102e1800020c23fa01f24cea020c23fa00fe04ea3f
:102e28000c0605ea0e0724ea0c0256ea070425ea0e
:102e38000e030fd0002a73f100040bda4ff480154b
:102e480005fa08f425fa01f10c43121925fa00f0e5
:102e580040eb030343ec102bbde8f081002a73f12b
:102e6800000303db9fed080bbde8f0819fed080b25
:102e7800bde8f0810029efd10a4603f0004343ec96
:102e8800102be9e7aff3008000000000000000000d
:0c2e9800000000000000f0bfffff0f0072
:020000040000fa
:102ea400f8b52d494c6ad1e90623561c43f10007b5
:102eb400c1e90667002c4dd091f82030013381f828
:102ec4002030a36823b1a368013ba3604c6afcb122
:102ed400a368ebb9012500271f4e0ae0e06901f061
:102ee40017fbe3680bb120699847746a84b1a3683f
:102ef40073b925756575a37813b9e368002bedd113
:102f0400204601f045f9a378002bead16770e8e781
:102f1400124d00242e46274603e001342035052cab
:102f240012d006eb44135b7d002bf6d006eb441362
:102f34005f75ab78012bf0d16b6806eb441293609c
:102f4400284600f08dfae8e7034a92f82030013b66
:102f540082f82030f8bd00bf30ab00201ca8002050
:020000040000fa
:102f640010b504464ff4fe72002101f0cdff264a4d
:102f7400936943f001039361936913f0010ffbd04c
:102f8400214b9a6942f002029a6120490c60a2b274
:102f940042f0004242f4e022c3f8a02004f170029f
:102fa4004a6092b242f0004242f4e022c3f8b020f8
:102fb40004f1e0028a6092b2c3f8ac2004f5a8726e
:102fc400ca6092b242f0e062c3f8c02004f5e07235
:102fd4000a6192b242f4e022c3f8f02004f5fc72d4
:102fe4004a614ff00062c4f8f8218a8a42f48032c0
:102ff400c3f884209a6922f001029a611a469369ff
:1030040013f0010ffbd110bd000400427cab002083
:020000040000fa
:10301400882910b536d012dc812943d003dc8029fd
:1030240040d0002010bd82290ed08429f9d119681e
:1030340002b30a1d1a60b1f90020d3171ee0a029bb
:103044002bd00bdc9029ecd11968073121f0070152
:1030540001f108021a60d1e900230fe0c02901d070
:10306400f029ded11a68111d19601368036000236a
:10307400436005e00a1d1a600a880023c0e90023a2
:103084000120cfe7196822b10a1d1a6091f90020c6
:10309400d3e70a1d1a600a78efe71a68111d196050
:1030a4001268cae719681ab10a1d1a600a68c4e7e7
:0c30b4000c1d1c600b68c0e90032e1e755
:020000040000fa
:1030c000244b1b681bb1244b01221a60704710b5ba
:1030d000214b00221a60214b1b681b6b1a68b2f14e
:1030e000a53f03d15a68b2f1a53f23d01b4b186806
:1030f0001968343101f0befe194b1b68b3fa83f333
:10310000dbb2c3f11f03174a9900c81802eb800015
:10311000446864684460194402460832944212d0fc
:1031200003eb83030f4a02eb83035b68da680b4b04
:103130001a6010bd9a68b2f1a53fd7d1db68b3f130
:10314000a53fd3d1d8e760680a46064901eb820261
:103150005060e5e700ac002018ac0020f0ab002088
:0831600004ac00207caa002051
:020000040000fa
:10316800002849d038b50446c26a24490968c96aa2
:103178008a4238d28169002905db20490968c96a71
:10318800c1f10501816102eb82021d4901eb820256
:103198006169914205d0194a1268d26ae262012037
:1031a80029e0251d284601f0dbfc38b915490b68d4
:1031b800e06a0122824023ea02030b600f4b1b687e
:1031c800d86ae0620f4a1168012404fa00f30b433d
:1031d800136000eb80002946094b03eb800001f0e7
:1031e800f5fd204607e0054a1268406cd36a98420c
:1031f8002cbf0020012038bd00207047f0ab002014
:083208007caa002004ac0020a8
:020000040000fa
:103210002de9f041d2e900230c4686b007465fea6b
:10322000d37820684968a5680590e66841d0524285
:1032300063eb4303002908db20f002000590b8f19e
:10324000000f02d1059948072ad5691e05a80290ea
:103250000a20cde90010204600f000fbb8f1000f75
:1032600002d1059b59071fd5b8f1000f00f1ff30bf
:1032700014bf2d232b2333542269059b0093013a5d
:103280002b46121a3118384600f0eef97b68db0540
:1032900003d563689842b8bf184606b0bde8f08110
:1032a0000807d2d42946d1e71a07e5d501382023eb
:0832b000e1e70029c0dac5e7df
:020000040000fa
:1032b80070b504460e461d4b1d681d4b186804303a
:1032c80001f04efc48b91a4b1a681a490b68d06ac3
:1032d8000122824023ea02030b60b4f1ff3f0dd0c4
:1032e8002c44134b1b685c60a54210d9124b18681c
:1032f8000f4b1968043101f043fa70bd002eefd06e
:103308000b4b196804310d4801f060fdf5e70c4bd3
:103318001868074b1968043101f032fa094b1b6829
:10332800a34284bf074b1c60e7e700bf14ac002032
:10333800f0ab002004ac0020f8ab0020c8ab0020a4
:08334800f4ab002008ac0020ea
:020000040000fa
:103350002de9ff41836946690093f61acde90161c1
:1033600004461746039216444ff002086d46424643
:103370002946206801f0b4fab04209d1d4e90232fa
:10338000c4e905331a44a262384604b0bde8f081ae
:1033900000280dda6268002342f01002b8f1020f33
:1033a000a362c4e90533626015d06b68ff1aebe7ce
:1033b0006b68984288bf0835a6eb000688bfc01a24
:1033c0002b6803442b606b68a3eb000088bf08f1f7
:0a33d000ff386860cbe71f46d6e720
:020000040000fa
:0233da0070473a
:020000040000fa
:1033dc0008b5194b9847194b9847eff3108172b603
:1033ec00174ad2f8883043f47003c2f88830bff320
:1033fc004f8fbff36f8f01b962b6124a936823f0f7
:10340c00010393601346da6812f0010ffbd10d4be8
:10341c0024225a6001229a60fdf792f90a4b23f09c
:10342c007f03074a9360094b9847094b9847094b10
:10343c009847fdf7e3fbfee7db330000db330000ce
:10344c0000ed00e00060004100000000393e00008b
:08345c00db330000db3300004c
:020000040000fa
:1034640000283cd02de9f04186461d4b5a6ad0f81d
:103474000880c2b1936844460025984518d30020bb
:1034840000219368c01841f100019369abb1d3f8ee
:1034940008c010eb0c0641f10007bd4208bfb4425e
:1034a4000bd31a46ede7c0f808800d4b586214e0c0
:1034b4000b4b58628261002003e0cef81830c2f84a
:1034c40018e0a8eb0000cef80800def8183023b1ad
:1034d400def808109a68521a9a60bde8f0817047c5
:0434e40030ab0020e9
:020000040000fa
:1034e800002835d038b50446826c013a8264c06a37
:1034f800616c88422ed00ab1002038bd251d2846af
:1035080001f02efb70b9e26a02eb82039b001249bc
:10351800cb583bb911480368012101fa02f223eaaa
:1035280002020260606ce062c0f10503a3610b4a0d
:103538001168012404fa00f30b43136000eb8000c8
:103548002946054b03eb800001f040fc2046d4e7f8
:10355800002070470020d0e77caa002004ac00209f
:020000040000fa
:10356800002838d038b50446426c914238bf11461d
:10357800c26a8a4202d0806c012800d038bde1625c
:10358800a0690028a4bfc1f10501a16102eb820274
:10359800114901eb820261699142efd1251d28464c
:1035a80001f0defa38b90d490b68e06a0122824061
:1035b80023ea02030b60e06a084a1168012383408a
:1035c8000b43136000eb80002946034b03eb80009c
:1035d80001f0fcfbd2e770477caa002004ac002075
:020000040000fa
:1035e8000138c0b2062834d8a9b32de9f0474ff006
:1035f8008443d3f8c430c3f30443013001eb001013
:103608000026dff858904ff001081c01d9f80c503b
:103618002a19d1f800a0d1f804e0d1f808c0cf6881
:1036280045f804a0c2f804e0c2f808c0d760103119
:1036380008fa03f216430133dbb2072b08bf002355
:103648008842e2d14ff08443c3f8d0600120bde83e
:10365800f087002070470020704700bf98ab00201b
:020000040000fa
:103668002de9ff471d460c9b13f0010906468a46c3
:10367800144601d195420bd822465146304600f0f7
:103688009fffa54204d82546284604b0bde8f08728
:103698002f1b102f3a464ff0200128bf10226846f2
:1036a800b84601f02ffcb8f10f0f11d83b096ff0a5
:1036b8000f0202fb03726946304600f081ffb9f140
:1036c800000fe1d122465146304600f079ffdbe792
:1036d80010226946304600f073ffa8f11008e2e7af
:020000040000fa
:1036e80070b5054601f072fa95f8454064b2002cb1
:1036f80011dd6b6a7bb105f1240606e001f03efca2
:10370800013c64b23cb16b6a2bb1304600f054f90d
:103718000028f5d0f2e7ff2385f8453001f076fb65
:1037280001f054fa95f8444064b2002c11dd2b697d
:103738007bb105f1100606e001f020fc013c64b203
:103748003cb12b692bb1304600f036f90028f5d092
:0e375800f2e7ff2385f8443001f058fb70bd06
:020000040000fa
:10376600842910b523d00cdc812903d0822913d0fb
:1037760080290bd119680c1d1c600b6803601a6048
:1037860013e0902921d003dc882917d0002010bd32
:10379600a029efd0c029ece719680c1d1c600b6846
:1037a6000360d1171046c3e900010120efe719684d
:1037b6000c1d1c600b6803601a80f6e719680c1d67
:1037c6001c600b6803601a70efe719680c1d1c601b
:0c37d60009680160d317c1e90023e6e791
:020000040000fa
:0237e200fee700
:020000040000fa
:1037e40059b338b50d4658bb174801f093fa012870
:1037f40002d04ff0ff3025e02b68144c63604ff487
:103804000072e260b5f90420228100200021c4e99d
:1038140006010025656284f820501b6829460c487f
:10382400984763685b689847a0222946094801f0d5
:103834006bfb02232370204604e04ff0ff307047f7
:103844004ff0ff3038bd00bf58ab002030ab002034
:08385400a52e00001ca80020b5
:020000040000fa
:10385c002de9f84f04460c9f6668d4f80cb0246927
:10386c0010463a68013c002502f0020a0b9a0bf84c
:10387c000450002e1946b8bf0126012390464fea8a
:10388c00e279002c03dcd3b12046bde8f88f50ea76
:10389c00010209d1721b002a06dc0a9a521b002a6b
:1038ac00f1ddbaf1000feed042464b4601f02af89a
:1038bc00013c134630320bf804200135e1e73b683c
:0838cc0023f010033b60dfe76d
:020000040000fa
:1038d40070b504461646856b026c5ab903681bb171
:1038e40000200135a56370bd8068fff7fbfd002350
:1038f400a360f6e76eb9406801f0ccfa6368226c05
:1039040013446360a268934219d32368636030460a
:10391400e7e7c06801f0befa226c5242e368134440
:10392400e36021688b4202d2a3681a44e260022e4b
:1039340001d00020d5e725b1013d0020d1e7304674
:06394400cfe70020cde7f3
:020000040000fa
:10394a00f8b5846a05460f46164654b1ab6a6a69e9
:10395a009b1ab3420bd2324639462846fff7f3fc8c
:10396a00f8bd01f004fa0028f0d02046f8e7002e4e
:10397a00f1d095f93430002b1bdbdbb23446621ee2
:10398a00b95c994212d1224639462846fff7dbfc38
:10399a00a042e5d32744341b22463946686901f020
:1039aa0076fa6b691c446c613046d9e71446002ae2
:0639ba00e5d13446f0e700
:020000040000fa
:1039c00038b5c368dc6804f11805284601f0ccf866
:1039d000124b1b68ebb9251d284601f0c5f8e06abb
:1039e0000f4a1168012383400b43136000eb8000f2
:1039f00029460c4b03eb800001f0ecf90a4b1b68e5
:103a0000e26adb6a9a4283bf0120084b18600020fb
:103a100038bd2946064801f0ddf9efe700ac00208b
:103a200004ac00207caa0020f0ab002018ac0020e1
:043a3000b4ab002013
:020000040000fa
:103a3400f0b50c4649682368a768e56887b0002993
:103a44000593a4bf23f00203059305ab0293082357
:103a5400cde900730646d2e900232046fff7fcfeb9
:103a6400059bd90642bf00f1ff3030232b54059b40
:103a74001a0742bf00f1ff3020232b542269059b13
:103a84000093013a3b46121a29183046fff7eafd23
:103a94007368db0503d563689842b8bf184607b05e
:023aa400f0bd73
:020000040000fa
:023aa600fee739
:020000040000fa
:103aa80038b504460d4601f091f82268216ce36ba5
:103ab80003fb01f3d018a0600020a06362605b1aca
:103ac8001344e360ff2384f8443084f84530a5b9f3
:103ad80023691bb901f09af9012038bd04f11000df
:103ae800fff76aff0028f5d0084b4ff080521a60a4
:103af800bff34f8fbff36f8fece704f1100001f0b5
:103b08005af904f1240001f056f9e3e704ed00e066
:020000040000fa
:103b180038b5044610f0070f1cbf20f0070408341e
:103b280001f0e0f9124b1b687bb1124b1b681c4477
:103b380049f6f77294420ed8a3420fd3fef7fcff62
:103b480001f09df90025284638bd094a0a4b23f0a3
:103b580007031360e9e7fef7effff1e7044a15688a
:103b68001d44044b1c60fef7e7ff002debd1e7e78f
:0c3b7800e8ab0020ecab002008000020af
:020000040000fa
:0c3b8400014b18609960704714a60020e7
:020000040000fa
:103b9000eff30980bff36f8f154b1a681ef0100ffb
:103ba00008bf20ed108a20e9f04f10602de90900d0
:103bb0004ff0200080f31188bff34f8fbff36f8f5a
:103bc000fff77efa4ff0000080f3118809bc1968f6
:103bd0000868b0e8f04f1ef0100f08bfb0ec108a74
:103be00080f30988bff36f8f704700bfaff3008089
:043bf000f0ab002016
:020000040000fa
:103bf400154b01229a611a46936913f0010ffbd009
:103c0400114b9a6942f002029a61104ada614ff04c
:103c1400ff32c3f89820c3f89c200822c3f8802000
:103c24009a6922f001029a611a46936913f0010f0e
:103c3400fbd1074b00221a605a609a60da601a615d
:103c44005a619a61704700bf000400423b3a000683
:043c54007cab002025
:020000040000fa
:103c58004ff0844301229a611a46936913f0010fc9
:103c6800fbd04ff084439a6942f002029a610f4aee
:103c7800da614ff0ff32c3f89820c3f89c2008227d
:103c8800c3f880209a6922f001029a611a46936962
:103c980013f0010ffbd1064b00221a605a609a609c
:103ca800da601a615a619a61704700bf3b3a0006b0
:043cb80098ab0020a5
:020000040000fa
:103cbc0008b501f005f9124b1b680021186801f0da
:103ccc0017f9104b1b680021186801f011f900f06e
:103cdc00e3f9fef735fe01f0ebf8fef7a6fdfff772
:103cec0083ff00f031fdfff7b1ff00f0fdf906494d
:103cfc000020fff771fd054b186000f0a5f908bd19
:103d0c0034ac002018ad0020184b0000e4ab0020b0
:020000040000fa
:103d1c0070b5144b144a0021934206d3134a002564
:103d2c00d2e9003123b919b970bd03f8011bf3e7cf
:103d3c00946858180c3294b11446834208d111f08f
:103d4c00030318bf012303eb910102eb8102e7e7a8
:103d5c0014f8016b03f8016befe703f8015b834286
:103d6c00fbd1dde70000002000000020c0170000a0
:020000040000fa
:103d7c007fb5c36800911546002b18bf013a01921c
:103d8c0082680446cde902230e4602226946006889
:103d9c0000f070fd002808dc00f0180383f0080226
:103dac0063681343636005460fe0019a8242fad2be
:103dbc00a368e363801ae268184420642ab15a1c91
:103dcc00e2632e441b7806f8013c284604b070bd13
:020000040000fa
:103ddc0070b504460d4600f0f7fe124b1a682b68be
:103dec00b3f1ff3f16d061680f4800682668864221
:103dfc0001d0914213d9501a834203d800232b606f
:103e0c00012408e09b1a0b442b60204600f0a2ff13
:103e1c00002400e0002400f0f7ff204670bd0124d0
:0c3e2c00f9e700bf14ac00200cac002033
:020000040000fa
:103e38000e4a38b5002313600d4a0e4c13600e4a23
:103e48000e4d13600e4a13600e4a13600e4a5362f9
:103e580013610123936001f065f800f084fdac4222
:103e680000d338bd54f8043b9847f8e720ac00204d
:103e7800ecaa00206c020000e8aa002070020000f2
:0c3e8800e0aa0020e4aa0020f0aa00201c
:020000040000fa
:103e940020212223242425252626272728282828cc
:103ea400292929292a2a2a2a2b2b2b2b2c2c2c2c66
:103eb4002c2c2c2c2d2d2d2d2d2d2d2d2e2e2e2e2e
:103ec4002e2e2e2e2f2f2f2f2f2f2f2f00011702a4
:103ed4001d1813031e1b190b1408040d1f161c12a6
:0c3ee4001a0a070c1511090610050f0e34
:020000040000fa
:103ef00038b50d46044608b9002038bd43689b0616
:103f000007d5d0e905239a4216d80023c4e9053322
:103f1000a362d4e90f13994204d20122c91a20687e
:103f200001f060f80023c4e90f33002de4d02068cd
:103f3000bde8384001f04eb80022c36a11469847e8
:0c3f40006369002be1d14ff0ff30d6e7a1
:020000040000fa
:103f4c0070b5d0e90245a54217d10122a1f1200399
:103f5c00c1f1200622fa06f602fa03f333438a4033
:103f6c00db43d6431ab10b490a6832400a605a1c2b
:103f7c001fbf084a51680b4053604368ac6043f064
:103f8c00010223f00103e5604260c25842f00102d5
:083f9c00c25070bd08a4002012
:020000040000fa
:103fa4002de9ff41134dd1f80080af88adf80c70b6
:103fb40006462868029002aca8798df80e00002a03
:103fc40018bf1446d1e901571a461bb9204600f020
:103fd400a3ff0246002d02dbaa4228bf2a46cdf8e1
:103fe40000803b4621463046fff73cfb04b0bde869
:083ff400f08100bfc04f000086
:020000040000fa
:103ffc00f0b50c4649682368a668e76887b00029c5
:10400c000593a4bf23f00203059305ab02930a2387
:10401c00cde900630546d2e900232046fff718fce2
:10402c002269059b0093013a3346121a3918284627
:10403c00fff714fb6b68db0503d563689842b8bfc8
:06404c00184607b0f0bdac
:020000040000fa
:02405200fee787
:020000040000fa
:10405400114bda6822f4e0621204120c42f0bf62df
:1040640042f40032da60bff35f8f62b6e02183f876
:1040740023100a4a82f80b134ff4006111605a6a44
:1040840042f480225a625a6942f010025a615a6a12
:1040940042f400325a62704700ed00e000e100e0b3
:020000040000fa
:1040a400124b4ff480421a604ff440421a610021cf
:1040b40083f84e10062283f84f20012283f85620fd
:1040c40083f8572083f83710882183f83b1083f84e
:1040d400cc2083f8cd2083f8d02083f8d120772218
:1040e40083f8b620222283f8b8207047008000416c
:020000040000fa
:1040f400124b01221a801a46136913f0010ffbd1e7
:104104000e4b48f280121a801a46136913f4004fba
:10411400fbd10a4b01221a621a46136913f0200fcd
:10412400fbd1064b00225a621a46136913f0400f62
:10413400fbd1024b4ff480725a8170470024004037
:020000040000fa
:1041440010b370b506460d4600f050fbd5b10024ff
:104154000e4a137e13f0040ffbd0538b13f0070f9a
:104164000bd1536803f00703012b936a14bf335533
:1041740026f814300134a542ebd1a54214bf002027
:10418400012070bd2c46f8e700207047000400436e
:020000040000fa
:10419400124b5a6a02b310b4824204d18369a3b1a8
:1041a400002206e01a46936963b19842fad1836902
:1041b40023b1846899682144996042b18369936109
:1041c400002383615df8044b70471a46f5e7034bff
:1041d4005a6a92695a62f3e7704700bf30ab002015
:020000040000fa
:1041e40013b5836a8df80710044673b16369a26a34
:1041f400934212d3e36a01220df107012046984746
:10420400012806d19df8070005e000f0b3fd002861
:10421400ecd04ff0ff3002b010bd9df8070094f9c8
:0e42240034209042e6d05a1c62611870f3e715
:020000040000fa
:02423200fee7a5
:020000040000fa
:10423400022a70b5044616461d461ad043689b06ea
:1042440017d441b9002d08bf4ff4806505f108006b
:10425400fdf7b4ff01466368012e43f02003636059
:10426400c4e9021514bfff230a2384f83430024b37
:0c427400e362002070bd00bf4b39000069
:020000040000fa
:10428000c1f30a5340f21e42d21a0edd202a0ad888
:10429000cb0243ea505040f00040d04090eae17039
:1042a000b0ebe1707047002070474b00004218bf30
:1042b00043f0010313f5001f88bf21f0004111f006
:0a42c000004058bf6ff00040704747
:020000040000fa
:1042ca0010b50278202a034600f10100f9d0a2f1c4
:1042da0009010429f5d92b2a07d02d2a11d1012148
:1042ea000133013b00200a2403e00021f8e7604380
:1042fa00801a13f8012f303a092af8d901b9404235
:06430a0010bd0021ede7eb
:020000040000fa
:10431000d0b110b40446c9b1084421460c4a6442e5
:10432000137e13f0010ffbd0536803f00703012b3a
:1043300014bf0b7834f81130936201318142efd110
:1043400001205df8044b7047002070470120f8e71a
:044350000004004322
:020000040000fa
:1043540038b5044600f07afd002c16db63090c49dd
:1043640051f8235004f01f04e54005f00105012233
:1043740002fa04f4203341f82340bff34f8fbff314
:104384006f8f00f06cfd284638bd0025f9e700bfab
:0443940000e100e064
:020000040000fa
:10439800062816d8b9b130b40c4b9b6803eb001350
:1043a8001d685c689a68db680d604c608a60cb6049
:1043b800012202fa00f00649c1f89800104630bc04
:1043c8007047002070470020704700bf7cab00207a
:0443d800000400429b
:020000040000fa
:1043dc0010b5054c227832b9044b13b10448aff335
:1043ec0000800123237010bd60ab00200000000092
:1043fc000000000008b5034b1bb103490348aff3a1
:10440c00008008bd0000000064ab0020000000002c
:020000040000fa
:10441c000c4a036810b5546a0b4a591e121b8a4287
:10442c000ad22bb1094b0c221a604ff0ff3010bd91
:10443c00102202600020fae7173323f00f03036009
:10444c00f8e700bff0aa0020efffff7f24ac0020ac
:020000040000fa
:10445c0010b44c68a40602460b4603d45df8044b1a
:10446c0000f0e6b891f93410c0b2814203d059691a
:10447c009c6aa14205d3114618465df8044bfff720
:0e448c00abbe4c1c5c610a705df8044b7047bf
:020000040000fa
:02449a00fee73b
:020000040000fa
:10449c00431e13f1030f0fd883b2042b0ed80a4a14
:1044ac0002eb4312d26982420ad15a0106498a5c54
:1044bc0042b101eb43107047002070470020704759
:0c44cc0000207047002070471ca8002052
:020000040000fa
:1044d80008b50b4bb3f90830002b08db590903f07a
:1044e8001f03012202fa03f3064a42f82130044b63
:1044f80093f8203003b108bd034800f015fcfae733
:0c45080030ab002000e100e058ab0020c8
:020000040000fa
:1045140010b5044600f074f8b0b12046fff7bcffb4
:10452400044678b1437843b9002020756075207043
:104534000446fff7cfff204610bdfff729fe0023f6
:0c4544006370f1e70124f4e70124f4e7c0
:020000040000fa
:104550000d4bd3f89820a2b130b412f0010f0cd15a
:1045600001231c46ddb204fa03f1914306d0013366
:10457000072bf7d1002030bc7047002505700120c3
:0c458000f9e70020704700bf0004004273
:020000040000fa
:10458c004ff4001c1ceb410f98bf1ceb430f11d8d0
:10459c0051ea030c50ea4c0c5cea020c0cd004d22d
:1045ac0082428b4180410130704790429941804159
:0c45bc000130704700207047012070475c
:020000040000fa
:1045c80038b5436813f4807f0446154610d0036954
:1045d80040699a4228bf1d462a4600f059fc626984
:1045e8005319636123695b1b23610023535538bd4d
:0a45f800db06fcd400f0c8fbf9e775
:020000040000fa
:02460200fee7d1
:020000040000fa
:1046040008b50b4b93f820300bb1012008bd4ff6d1
:10461400ff71084800f00cfb012801d00020f5e7e9
:10462400034bb3f90800fff793fe0120eee700bf48
:0846340030ab002058ab002060
:020000040000fa
:10463c0007b54a68c0b2d2050b468df8070006d5ff
:10464c004a69511c5961107003b05df804fb0122da
:10465c000df10701184600f095fb10b19df807000d
:08466c00f2e74ff0ff30efe729
:020000040000fa
:1046740000090138202813d9b0f5007f05d2094b71
:1046840003ebd00010f8040c7047b0f5e05f06d8d7
:10469400044b03ebd01010f8040c103070473f208b
:0846a400704700bf943e0000c6
:020000040000fa
:1046ac0030b50c4a002312f8134024b902eb430333
:1046bc005b78184630bd01680d78a54209bf02eb46
:1046cc00430301335b78013114bfdbb201600a2b69
:0846dc00e9d9eee7fc4c0000f7
:020000040000fa
:1046e4004ff4001c1ceb410f98bf1ceb430f11d877
:1046f40051ea030c50ea4c0c5cea020c0ad004d2d6
:1047040082428b41804140427047904299418041ae
:0847140040427047002070478d
:020000040000fa
:10471c004ff4001c1ceb410f98bf1ceb430f11d83e
:10472c0051ea030c50ea4c0c5cea020c0ad004d29d
:10473c009042994180414042704782428b41804176
:08474c00404270470020704755
:020000040000fa
:104754000a4b0b4a1a604ff658729a814ff4403252
:104764005a601a46d369002bfcd1044a136843f0fb
:1047740002031360d369002bfcd17047000400438b
:0447840004011040dc
:020000040000fa
:1047880030b40d68b5f1ff3f02d000f1080202e035
:10479800026904e01a4653681c68ac42fad95368a7
:1047a8004b6099608a605160086103680133036057
:0447b80030bc70475a
:020000040000fa
:1047bc004ff4001c1ceb410f98bf1ceb430f0cd8a3
:1047cc0050ea410c08bf52ea430c08d0904208bf93
:1047dc0099420cbf01200020704700207047012037
:0247ec00704714
:020000040000fa
:0247ee00fee7e4
:020000040000fa
:1047f0000a4b5b8b13f0070f0ed0084b80221a7602
:1048000007225a831b7e13f0040f05d0034b9a6acc
:104810001a7e12f0040ffad1704700bf0004004363
:020000040000fa
:1048200070b506460d4601fb00f04830fff774f9fd
:10483000044648b155b100f148032360e66325649e
:1048400001212046fff730f9204670bd0346f4e70a
:020000040000fa
:104850000a4b586c20f4605020f018004004400cc3
:104860009b6913f0010f08d0044a936923f00103f8
:104870009361936913f0010ffbd17047000400426c
:020000040000fa
:104880002de9f843002580460e4617462c4601f1d7
:104890000409bc4202db2846bde8f88359f83420fd
:1048a00056f83410404600f0d4f901340544f0e7de
:020000040000fa
:1048b00070b505462c68e30701d500200fe02046bf
:1048c000fff7d8fe064600f0a5f92868a042f1d10e
:1048d00020f00100281a3146fff738fb012070bd97
:020000040000fa
:1048e0002de9f843002580460e4617462c4601f177
:1048f0000409bc4202db2846bde8f88359f834209d
:1049000056f83410404600f0c1f901340544f0e790
:020000040000fa
:1049100053b94ab9002908bf00281cbf4ff0ff3126
:104920004ff0ff3000f05cbbadf1080c6de904ce38
:10493000fdf7bef8ddf804e0dde9022304b07047be
:020000040000fa
:10494000426822f00102531a102b30b40dd94418da
:1049500041f0010543f00103455063608350456019
:0e49600004f1080030bcfef76fb830bc7047a1
:020000040000fa
:02496e00704790
:020000040000fa
:1049700008b54ff0200383f31188bff36f8fbff3a7
:104980004f8ffdf759ff18b1034b4ff080521a605b
:0c499000002383f3118808bd04ed00e053
:020000040000fa
:10499c00084b1b681b6823b9074b4ff0ff321a609a
:1049ac007047044b1b68db68db685a68024b1a6063
:0c49bc00704700bff4ab002008ac0020e6
:020000040000fa
:1049c80070b505466c68e30701d500200de0204668
:1049d800fff74cfe064600f019f96b68a342f1d1c7
:0c49e80028463146fff7aefa012070bdf2
:020000040000fa
:1049f40000b553ec112b83b051ec100b8ded002b53
:104a0400fdf75efd9ded002b53ec122bfdf7acf989
:0c4a140041ec100b03b05df804fb00bf88
:020000040000fa
:104a2000074b1968024609b9064919601868064912
:104a300002448a4294bf1a604ff0ff30704700bfb3
:0c4a400028ac002028ad002028b1002088
:020000040000fa
:104a4c0070b5002902fb01f614460d4618bf14463a
:104a5c0001463246184608bf002400f093f98642fe
:0a4a6c0018bfb0fbf5f4204670bd42
:020000040000fa
:104a7600802910db812901dd83290cd113680733d6
:104a860023f0070303f108011160d3e90023c0e90d
:0a4a96000023012070470020704744
:020000040000fa
:104aa00008b5074b988980b2064a50604cf2ff3136
:104ab00099819b8913680bb19168984708bd00bf25
:084ac0000024004014a60020b0
:020000040000fa
:104ac80010b5084c2368196800f06ef8002807db59
:104ad80023680a20196800f063fac00f404210bd2d
:084ae8000120fbe718ad0020de
:020000040000fa
:104af00090f948305a1e1343426880f8483012f04b
:104b000004031bbf42f010024260c0e90f334ff0b4
:084b1000ff3008bf1846704792
:020000040000fa
:084b1800004e00000b0000003c
:020000040000fa
:104b2000074b19680868b0e8f04f80f30988bff3b5
:104b30006f8f4ff0000080f311887047aff3008053
:044b4000f0ab0020b6
:020000040000fa
:104b440010b5024600210120fff768fe044638b183
:104b5400002181600160c1600b460a46fdf748fdf3
:044b6400204610bd1a
:020000040000fa
:104b68000369416882688a60416851605a68824274
:104b780004bf82685a60002202611a68013a1a600a
:044b880018687047f2
:020000040000fa
:104b8c000fb407b5064b04aa1b6852f8041b18682f
:104b9c00019200f09ff803b05df804eb04b070478d
:044bac0018ad002020
:020000040000fa
:104bb00070b50e46054600f0b1f93346044602468c
:104bc00001212846fff742ff001b18bf4ff0ff30be
:024bd00070bdb6
:020000040000fa
:024bd20070472a
:020000040000fa
:104bd4004ff0200383f31188bff36f8fbff34f8f20
:104be400024a136801331360704700bf1cad0020f4
:020000040000fa
:104bf40028b9064bd3f8a40000f07f007047034b9c
:104c0400d3f8b40000f07f00704700bf00040042f6
:020000040000fa
:104c1400064b013053f830203ab9c100a1f1080223
:104c24001a44194443f830204a60704708a400200d
:020000040000fa
:104c340008b54ff6ff73994208bf4ff0ff31006883
:0e4c4400fdf794fb012814bf0020012008bddd
:020000040000fa
:104c520038b550b952b10c46012529462046fff716
:0e4c620070fa0028f9d0012000e0002038bdd3
:020000040000fa
:104c7000054a138823f002031b041b0c13801369dd
:0c4c800013f0020ffbd17047002400402d
:020000040000fa
:104c8c0038b50d461446012801d0204638bd2146c2
:0c4c9c002846fff737fb0028f9d0f6e7a8
:020000040000fa
:104ca80010b50c46044b19681831fff769fd01214e
:0c4cb8002046fef7fdfa10bdf0ab002016
:020000040000fa
:104cc400054b1b6823b1044b1a68936c013393643e
:0c4cd400014b1868704700bff0ab0020d7
:020000040000fa
:104ce00013b50446019201aafcf7f0fb636813f0c8
:0c4cf000100f18bf4ff0ff3002b010bdd5
:020000040000fa
:104cfc0068076c094c836a9074a07ac0008068883d
:0c4d0c0000846c820081286e696c290014
:020000040000fa
:104d180003680bb10020704710b504460120fff767
:084d28000dff2060012010bd09
:020000040000fa
:104d300008b500231a4619460068fdf75bfc0128f8
:084d400014bf0020012008bd92
:020000040000fa
:104d4800044a138843f002031380136913f0020f17
:084d5800fbd17047002400406c
:020000040000fa
:104d6000034b1b680360034b1b684360704700bf25
:084d70000cac002014ac002083
:020000040000fa
:104d780010b50446fff7b8fe28b9a368e268c4e98d
:084d880005331344a36210bdc2
:020000040000fa
:104d900010b4c46a1cb123465df8044b1847006880
:084da0005df8044bfff772bf40
:020000040000fa
:104da80010b50446fff712ffa46b00f02ff8b4fa11
:064db80084f0400910bd6b
:020000040000fa
:104dbe0000f1080343604ff0ff328260c36003616d
:064dce00002303607047a2
:020000040000fa
:104dd40043684b609a688a6051609960086103680f
:064de4000133036070477b
:020000040000fa
:104dea000068002808b501da002008bdfff713fea5
:064dfa00431cfad1f8e7aa
:020000040000fa
:104e0000853b0000494d0000714c0000c94f000077
:044e1000000000009e
:020000040000fa
:104e1400034a1368013b13600bb983f3118870478d
:044e24001cad0020a1
:020000040000fa
:104e2800034b1b6d034214bf01200020704700bfd5
:044e38000004004230
:020000040000fa
:104e3c0008b500f0b7f8024b1860586008bd00bf09
:044e4c00dcab0020bb
:020000040000fa
:104e5000eff3108072b6bff35f8fb0fa80f04009b5
:024e6000704799
:020000040000fa
:104e620018b1bff35f8f62b6704772b6bff35f8f40
:024e7200704787
:020000040000fa
:104e74004ff0200383f31188bff36f8fbff34f8f7d
:024e8400fee747
:020000040000fa
:104e86004ff0200383f31188bff36f8fbff34f8f6b
:024e9600fee735
:020000040000fa
:104e980010b500239a4200d110bdcc5cc454013334
:024ea800f8e729
:020000040000fa
:104eaa00034611f8012b184603f8012b002af8d102
:024eba0070473f
:020000040000fa
:104ebc00024b4ff480429a61704700bf0080004162
:020000040000fa
:104ecc00024b40f204521a80704700bf0040004170
:020000040000fa
:104edc00024b187ec0f38000704700bf00040043f3
:020000040000fa
:104eec00024a136801331360704700bf00ac002006
:020000040000fa
:104efc0000294ff480630cbf02220022fff794b903
:020000040000fa
:104f0c0002440346934200d1704703f8011bf9e7b2
:020000040000fa
:104f1c0003461a46013311780029fad1101a70474a
:020000040000fa
:104f2c0008b5fff785fffff74efefff74cfe08bdf7
:020000040000fa
:104f3c00494e4600696e66004e414e006e616e0031
:104f4c00494e4600696e66004e414e006e616e0021
:020000040000fa
:0e4f5c00a0f14103192b98bf40f020007047d0
:020000040000fa
:0e4f6a00a0f16103192b98bf00f05f007047a3
:020000040000fa
:0c4f7800014b986a704700bf0004004322
:020000040000fa
:0c4f8400014b01221a60704718ac00209d
:020000040000fa
:0c4f9000014b1865704700bf0004004290
:020000040000fa
:0c4f9c0010b50446fff783ff204610bd4f
:020000040000fa
:084fa80008b5fff757fa08bd38
:020000040000fa
:084fb000004870479cac002092
:020000040000fa
:084fb80083f00043fcf7d6beb4
:020000040000fa
:074fc000286e756c6c2900de
:020000040000fa
:064fc8004ff48060704709
:020000040000fa
:064fce000068fff75cbe65
:020000040000fa
:064fd4004ff0ff307047b2
:020000040000fa
:044fda0000207047fc
:020000040000fa
:024fde0070471a
:020000040000fa
:044fe000704700bf57
:020000040000fa
:044fe40000207047f2
:020000040000fa
:0200000400807a
:044000003912003c35
:020000040000fa
:0200000400807a
:044004008000a82a66
:020000040000fa
:0200000400807a
:04400800ffffffffb8
:00000001FF
